{
  "_format": "hh-sol-artifact-1",
  "contractName": "Funding",
  "sourceName": "contracts/Funding.sol",
  "abi": [
    {
      "anonymous": false,
      "inputs": [
        {
          "indexed": true,
          "internalType": "address",
          "name": "owner",
          "type": "address"
        },
        {
          "indexed": true,
          "internalType": "address",
          "name": "approved",
          "type": "address"
        },
        {
          "indexed": true,
          "internalType": "uint256",
          "name": "tokenId",
          "type": "uint256"
        }
      ],
      "name": "Approval",
      "type": "event"
    },
    {
      "anonymous": false,
      "inputs": [
        {
          "indexed": true,
          "internalType": "address",
          "name": "owner",
          "type": "address"
        },
        {
          "indexed": true,
          "internalType": "address",
          "name": "operator",
          "type": "address"
        },
        {
          "indexed": false,
          "internalType": "bool",
          "name": "approved",
          "type": "bool"
        }
      ],
      "name": "ApprovalForAll",
      "type": "event"
    },
    {
      "anonymous": false,
      "inputs": [
        {
          "indexed": true,
          "internalType": "address",
          "name": "previousOwner",
          "type": "address"
        },
        {
          "indexed": true,
          "internalType": "address",
          "name": "newOwner",
          "type": "address"
        }
      ],
      "name": "OwnershipTransferred",
      "type": "event"
    },
    {
      "anonymous": false,
      "inputs": [
        {
          "indexed": true,
          "internalType": "address",
          "name": "from",
          "type": "address"
        },
        {
          "indexed": true,
          "internalType": "address",
          "name": "to",
          "type": "address"
        },
        {
          "indexed": true,
          "internalType": "uint256",
          "name": "tokenId",
          "type": "uint256"
        }
      ],
      "name": "Transfer",
      "type": "event"
    },
    {
      "inputs": [
        {
          "internalType": "address",
          "name": "",
          "type": "address"
        },
        {
          "internalType": "uint256",
          "name": "",
          "type": "uint256"
        }
      ],
      "name": "_tokenOwners",
      "outputs": [
        {
          "internalType": "uint256",
          "name": "",
          "type": "uint256"
        }
      ],
      "stateMutability": "view",
      "type": "function"
    },
    {
      "inputs": [
        {
          "internalType": "uint256",
          "name": "",
          "type": "uint256"
        }
      ],
      "name": "_tokenURIs",
      "outputs": [
        {
          "internalType": "string",
          "name": "",
          "type": "string"
        }
      ],
      "stateMutability": "view",
      "type": "function"
    },
    {
      "inputs": [
        {
          "internalType": "address",
          "name": "to",
          "type": "address"
        },
        {
          "internalType": "uint256",
          "name": "tokenId",
          "type": "uint256"
        }
      ],
      "name": "approve",
      "outputs": [],
      "stateMutability": "nonpayable",
      "type": "function"
    },
    {
      "inputs": [
        {
          "internalType": "address",
          "name": "owner",
          "type": "address"
        }
      ],
      "name": "balanceOf",
      "outputs": [
        {
          "internalType": "uint256",
          "name": "",
          "type": "uint256"
        }
      ],
      "stateMutability": "view",
      "type": "function"
    },
    {
      "inputs": [
        {
          "internalType": "uint256",
          "name": "",
          "type": "uint256"
        }
      ],
      "name": "deadlines",
      "outputs": [
        {
          "internalType": "uint256",
          "name": "",
          "type": "uint256"
        }
      ],
      "stateMutability": "view",
      "type": "function"
    },
    {
      "inputs": [
        {
          "internalType": "uint256",
          "name": "_tokenID",
          "type": "uint256"
        }
      ],
      "name": "funding",
      "outputs": [],
      "stateMutability": "payable",
      "type": "function"
    },
    {
      "inputs": [
        {
          "internalType": "uint256",
          "name": "",
          "type": "uint256"
        }
      ],
      "name": "fundingOwner",
      "outputs": [
        {
          "internalType": "address",
          "name": "",
          "type": "address"
        }
      ],
      "stateMutability": "view",
      "type": "function"
    },
    {
      "inputs": [
        {
          "internalType": "uint256",
          "name": "",
          "type": "uint256"
        }
      ],
      "name": "fundingPot",
      "outputs": [
        {
          "internalType": "uint256",
          "name": "",
          "type": "uint256"
        }
      ],
      "stateMutability": "view",
      "type": "function"
    },
    {
      "inputs": [
        {
          "internalType": "uint256",
          "name": "tokenId",
          "type": "uint256"
        }
      ],
      "name": "getApproved",
      "outputs": [
        {
          "internalType": "address",
          "name": "",
          "type": "address"
        }
      ],
      "stateMutability": "view",
      "type": "function"
    },
    {
      "inputs": [
        {
          "internalType": "address",
          "name": "owner",
          "type": "address"
        },
        {
          "internalType": "address",
          "name": "operator",
          "type": "address"
        }
      ],
      "name": "isApprovedForAll",
      "outputs": [
        {
          "internalType": "bool",
          "name": "",
          "type": "bool"
        }
      ],
      "stateMutability": "view",
      "type": "function"
    },
    {
      "inputs": [
        {
          "internalType": "string",
          "name": "tokenURI",
          "type": "string"
        },
        {
          "internalType": "uint256",
          "name": "_tokenId",
          "type": "uint256"
        }
      ],
      "name": "mintMynft",
      "outputs": [],
      "stateMutability": "nonpayable",
      "type": "function"
    },
    {
      "inputs": [
        {
          "internalType": "string",
          "name": "tokenURI",
          "type": "string"
        },
        {
          "internalType": "uint256",
          "name": "_price",
          "type": "uint256"
        }
      ],
      "name": "mintMynftPriced",
      "outputs": [],
      "stateMutability": "nonpayable",
      "type": "function"
    },
    {
      "inputs": [],
      "name": "name",
      "outputs": [
        {
          "internalType": "string",
          "name": "",
          "type": "string"
        }
      ],
      "stateMutability": "view",
      "type": "function"
    },
    {
      "inputs": [],
      "name": "owner",
      "outputs": [
        {
          "internalType": "address",
          "name": "",
          "type": "address"
        }
      ],
      "stateMutability": "view",
      "type": "function"
    },
    {
      "inputs": [
        {
          "internalType": "uint256",
          "name": "tokenId",
          "type": "uint256"
        }
      ],
      "name": "ownerOf",
      "outputs": [
        {
          "internalType": "address",
          "name": "",
          "type": "address"
        }
      ],
      "stateMutability": "view",
      "type": "function"
    },
    {
      "inputs": [
        {
          "internalType": "uint256",
          "name": "",
          "type": "uint256"
        },
        {
          "internalType": "uint256",
          "name": "",
          "type": "uint256"
        }
      ],
      "name": "participants",
      "outputs": [
        {
          "internalType": "address",
          "name": "",
          "type": "address"
        }
      ],
      "stateMutability": "view",
      "type": "function"
    },
    {
      "inputs": [
        {
          "internalType": "uint256",
          "name": "",
          "type": "uint256"
        },
        {
          "internalType": "uint256",
          "name": "",
          "type": "uint256"
        }
      ],
      "name": "participateTokens",
      "outputs": [
        {
          "internalType": "uint256",
          "name": "",
          "type": "uint256"
        }
      ],
      "stateMutability": "view",
      "type": "function"
    },
    {
      "inputs": [
        {
          "internalType": "uint256",
          "name": "",
          "type": "uint256"
        }
      ],
      "name": "prices",
      "outputs": [
        {
          "internalType": "uint256",
          "name": "",
          "type": "uint256"
        }
      ],
      "stateMutability": "view",
      "type": "function"
    },
    {
      "inputs": [
        {
          "internalType": "uint256",
          "name": "_tokenID",
          "type": "uint256"
        }
      ],
      "name": "randParticipants",
      "outputs": [
        {
          "internalType": "uint256",
          "name": "",
          "type": "uint256"
        }
      ],
      "stateMutability": "nonpayable",
      "type": "function"
    },
    {
      "inputs": [
        {
          "internalType": "uint256",
          "name": "tokenID",
          "type": "uint256"
        },
        {
          "internalType": "address",
          "name": "winner",
          "type": "address"
        }
      ],
      "name": "randomDeployNFT",
      "outputs": [],
      "stateMutability": "nonpayable",
      "type": "function"
    },
    {
      "inputs": [
        {
          "internalType": "uint256",
          "name": "_tokenID",
          "type": "uint256"
        }
      ],
      "name": "randomNFTOwner",
      "outputs": [
        {
          "internalType": "address",
          "name": "",
          "type": "address"
        }
      ],
      "stateMutability": "nonpayable",
      "type": "function"
    },
    {
      "inputs": [
        {
          "internalType": "uint256",
          "name": "",
          "type": "uint256"
        },
        {
          "internalType": "uint256",
          "name": "",
          "type": "uint256"
        }
      ],
      "name": "randomParticipants",
      "outputs": [
        {
          "internalType": "address",
          "name": "",
          "type": "address"
        }
      ],
      "stateMutability": "view",
      "type": "function"
    },
    {
      "inputs": [],
      "name": "renounceOwnership",
      "outputs": [],
      "stateMutability": "nonpayable",
      "type": "function"
    },
    {
      "inputs": [
        {
          "internalType": "address",
          "name": "from",
          "type": "address"
        },
        {
          "internalType": "address",
          "name": "to",
          "type": "address"
        },
        {
          "internalType": "uint256",
          "name": "tokenId",
          "type": "uint256"
        }
      ],
      "name": "safeTransferFrom",
      "outputs": [],
      "stateMutability": "nonpayable",
      "type": "function"
    },
    {
      "inputs": [
        {
          "internalType": "address",
          "name": "from",
          "type": "address"
        },
        {
          "internalType": "address",
          "name": "to",
          "type": "address"
        },
        {
          "internalType": "uint256",
          "name": "tokenId",
          "type": "uint256"
        },
        {
          "internalType": "bytes",
          "name": "_data",
          "type": "bytes"
        }
      ],
      "name": "safeTransferFrom",
      "outputs": [],
      "stateMutability": "nonpayable",
      "type": "function"
    },
    {
      "inputs": [
        {
          "internalType": "address",
          "name": "operator",
          "type": "address"
        },
        {
          "internalType": "bool",
          "name": "approved",
          "type": "bool"
        }
      ],
      "name": "setApprovalForAll",
      "outputs": [],
      "stateMutability": "nonpayable",
      "type": "function"
    },
    {
      "inputs": [
        {
          "internalType": "address",
          "name": "account",
          "type": "address"
        }
      ],
      "name": "showNFTList",
      "outputs": [],
      "stateMutability": "nonpayable",
      "type": "function"
    },
    {
      "inputs": [
        {
          "internalType": "bytes4",
          "name": "interfaceId",
          "type": "bytes4"
        }
      ],
      "name": "supportsInterface",
      "outputs": [
        {
          "internalType": "bool",
          "name": "",
          "type": "bool"
        }
      ],
      "stateMutability": "view",
      "type": "function"
    },
    {
      "inputs": [],
      "name": "symbol",
      "outputs": [
        {
          "internalType": "string",
          "name": "",
          "type": "string"
        }
      ],
      "stateMutability": "view",
      "type": "function"
    },
    {
      "inputs": [
        {
          "internalType": "uint256",
          "name": "index",
          "type": "uint256"
        }
      ],
      "name": "tokenByIndex",
      "outputs": [
        {
          "internalType": "uint256",
          "name": "",
          "type": "uint256"
        }
      ],
      "stateMutability": "view",
      "type": "function"
    },
    {
      "inputs": [],
      "name": "tokenID",
      "outputs": [
        {
          "internalType": "uint256",
          "name": "",
          "type": "uint256"
        }
      ],
      "stateMutability": "view",
      "type": "function"
    },
    {
      "inputs": [
        {
          "internalType": "address",
          "name": "owner",
          "type": "address"
        },
        {
          "internalType": "uint256",
          "name": "index",
          "type": "uint256"
        }
      ],
      "name": "tokenOfOwnerByIndex",
      "outputs": [
        {
          "internalType": "uint256",
          "name": "",
          "type": "uint256"
        }
      ],
      "stateMutability": "view",
      "type": "function"
    },
    {
      "inputs": [
        {
          "internalType": "uint256",
          "name": "tokenId",
          "type": "uint256"
        }
      ],
      "name": "tokenURI",
      "outputs": [
        {
          "internalType": "string",
          "name": "",
          "type": "string"
        }
      ],
      "stateMutability": "view",
      "type": "function"
    },
    {
      "inputs": [],
      "name": "totalSupply",
      "outputs": [
        {
          "internalType": "uint256",
          "name": "",
          "type": "uint256"
        }
      ],
      "stateMutability": "view",
      "type": "function"
    },
    {
      "inputs": [
        {
          "internalType": "address",
          "name": "_to",
          "type": "address"
        },
        {
          "internalType": "uint256",
          "name": "_id",
          "type": "uint256"
        }
      ],
      "name": "transfer",
      "outputs": [],
      "stateMutability": "nonpayable",
      "type": "function"
    },
    {
      "inputs": [
        {
          "internalType": "address",
          "name": "from",
          "type": "address"
        },
        {
          "internalType": "address",
          "name": "to",
          "type": "address"
        },
        {
          "internalType": "uint256",
          "name": "tokenId",
          "type": "uint256"
        }
      ],
      "name": "transferFrom",
      "outputs": [],
      "stateMutability": "nonpayable",
      "type": "function"
    },
    {
      "inputs": [
        {
          "internalType": "address",
          "name": "newOwner",
          "type": "address"
        }
      ],
      "name": "transferOwnership",
      "outputs": [],
      "stateMutability": "nonpayable",
      "type": "function"
    }
  ],
  "bytecode": "0x60806040523480156200001157600080fd5b506040518060400160405280600481526020017f74657374000000000000000000000000000000000000000000000000000000008152506040518060400160405280600481526020017f74657374000000000000000000000000000000000000000000000000000000008152506200009e62000092620000e060201b60201c565b620000e860201b60201c565b8160019080519060200190620000b6929190620001ac565b508060029080519060200190620000cf929190620001ac565b5050506000600b81905550620002c1565b600033905090565b60008060009054906101000a900473ffffffffffffffffffffffffffffffffffffffff169050816000806101000a81548173ffffffffffffffffffffffffffffffffffffffff021916908373ffffffffffffffffffffffffffffffffffffffff1602179055508173ffffffffffffffffffffffffffffffffffffffff168173ffffffffffffffffffffffffffffffffffffffff167f8be0079c531659141344cd1fd0a4f28419497f9722a3daafe3b4186f6b6457e060405160405180910390a35050565b828054620001ba906200025c565b90600052602060002090601f016020900481019282620001de57600085556200022a565b82601f10620001f957805160ff19168380011785556200022a565b828001600101855582156200022a579182015b82811115620002295782518255916020019190600101906200020c565b5b5090506200023991906200023d565b5090565b5b80821115620002585760008160009055506001016200023e565b5090565b600060028204905060018216806200027557607f821691505b602082108114156200028c576200028b62000292565b5b50919050565b7f4e487b7100000000000000000000000000000000000000000000000000000000600052602260045260246000fd5b614f3380620002d16000396000f3fe60806040526004361061021a5760003560e01c80638cb0071e11610123578063b8769ac9116100ab578063d142db8f1161006f578063d142db8f1461087e578063d31acfcb146108a7578063de9ec391146108d0578063e985e9c51461090d578063f2fde38b1461094a5761021a565b8063b8769ac914610761578063b88d4fde1461079e578063bc31c1c1146107c7578063c5cdf2b914610804578063c87b56dd146108415761021a565b806395d89b41116100f257806395d89b411461067c578063a22cb465146106a7578063a5c42ef1146106d0578063a9059cbb146106fb578063b025cc45146107245761021a565b80638cb0071e146105e35780638da5cb5b1461060c5780638f02d5df1461063757806392ca60c1146106605761021a565b806342842e0e116101a657806363fb22941161017557806363fb2294146104d857806370a0823114610515578063715018a614610552578063807fd0a31461056957806381fb1fb4146105a65761021a565b806342842e0e146103f85780634654eba9146104215780634f6ccce71461045e5780636352211e1461049b5761021a565b8063095ea7b3116101ed578063095ea7b3146103015780630bb78ec11461032a57806318160ddd1461036757806323b872dd146103925780632f745c59146103bb5761021a565b806301ffc9a71461021f57806306fdde031461025c57806307bde4f914610287578063081812fc146102c4575b600080fd5b34801561022b57600080fd5b5061024660048036038101906102419190613c95565b610973565b604051610253919061470e565b60405180910390f35b34801561026857600080fd5b506102716109ed565b60405161027e9190614729565b60405180910390f35b34801561029357600080fd5b506102ae60048036038101906102a99190613da0565b610a7f565b6040516102bb91906146a7565b60405180910390f35b3480156102d057600080fd5b506102eb60048036038101906102e69190613d3b565b610acd565b6040516102f891906146a7565b60405180910390f35b34801561030d57600080fd5b5061032860048036038101906103239190613c59565b610b52565b005b34801561033657600080fd5b50610351600480360381019061034c9190613d3b565b610c6a565b60405161035e9190614729565b60405180910390f35b34801561037357600080fd5b5061037c610d0a565b6040516103899190614abe565b60405180910390f35b34801561039e57600080fd5b506103b960048036038101906103b49190613b53565b610d17565b005b3480156103c757600080fd5b506103e260048036038101906103dd9190613c59565b610d77565b6040516103ef9190614abe565b60405180910390f35b34801561040457600080fd5b5061041f600480360381019061041a9190613b53565b610e1c565b005b34801561042d57600080fd5b5061044860048036038101906104439190613d3b565b610e3c565b6040516104559190614abe565b60405180910390f35b34801561046a57600080fd5b5061048560048036038101906104809190613d3b565b610e54565b6040516104929190614abe565b60405180910390f35b3480156104a757600080fd5b506104c260048036038101906104bd9190613d3b565b610eeb565b6040516104cf91906146a7565b60405180910390f35b3480156104e457600080fd5b506104ff60048036038101906104fa9190613c59565b610f9d565b60405161050c9190614abe565b60405180910390f35b34801561052157600080fd5b5061053c60048036038101906105379190613aee565b610fce565b6040516105499190614abe565b60405180910390f35b34801561055e57600080fd5b50610567611086565b005b34801561057557600080fd5b50610590600480360381019061058b9190613d3b565b61110e565b60405161059d91906146a7565b60405180910390f35b3480156105b257600080fd5b506105cd60048036038101906105c89190613da0565b611141565b6040516105da91906146a7565b60405180910390f35b3480156105ef57600080fd5b5061060a60048036038101906106059190613ce7565b61118f565b005b34801561061857600080fd5b50610621611300565b60405161062e91906146a7565b60405180910390f35b34801561064357600080fd5b5061065e60048036038101906106599190613aee565b611329565b005b61067a60048036038101906106759190613d3b565b61143e565b005b34801561068857600080fd5b5061069161168b565b60405161069e9190614729565b60405180910390f35b3480156106b357600080fd5b506106ce60048036038101906106c99190613c1d565b61171d565b005b3480156106dc57600080fd5b506106e5611733565b6040516106f29190614abe565b60405180910390f35b34801561070757600080fd5b50610722600480360381019061071d9190613c59565b611739565b005b34801561073057600080fd5b5061074b60048036038101906107469190613d3b565b611748565b6040516107589190614abe565b60405180910390f35b34801561076d57600080fd5b5061078860048036038101906107839190613d3b565b611760565b6040516107959190614abe565b60405180910390f35b3480156107aa57600080fd5b506107c560048036038101906107c09190613ba2565b611b10565b005b3480156107d357600080fd5b506107ee60048036038101906107e99190613d3b565b611b72565b6040516107fb9190614abe565b60405180910390f35b34801561081057600080fd5b5061082b60048036038101906108269190613d3b565b611b8a565b60405161083891906146a7565b60405180910390f35b34801561084d57600080fd5b5061086860048036038101906108639190613d3b565b611da7565b6040516108759190614729565b60405180910390f35b34801561088a57600080fd5b506108a560048036038101906108a09190613ce7565b611e4e565b005b3480156108b357600080fd5b506108ce60048036038101906108c99190613d64565b611f53565b005b3480156108dc57600080fd5b506108f760048036038101906108f29190613da0565b612069565b6040516109049190614abe565b60405180910390f35b34801561091957600080fd5b50610934600480360381019061092f9190613b17565b61209a565b604051610941919061470e565b60405180910390f35b34801561095657600080fd5b50610971600480360381019061096c9190613aee565b61212e565b005b60007f780e9d63000000000000000000000000000000000000000000000000000000007bffffffffffffffffffffffffffffffffffffffffffffffffffffffff1916827bffffffffffffffffffffffffffffffffffffffffffffffffffffffff191614806109e657506109e582612226565b5b9050919050565b6060600180546109fc90614d1e565b80601f0160208091040260200160405190810160405280929190818152602001828054610a2890614d1e565b8015610a755780601f10610a4a57610100808354040283529160200191610a75565b820191906000526020600020905b815481529060010190602001808311610a5857829003601f168201915b5050505050905090565b60106020528160005260406000208181548110610a9b57600080fd5b906000526020600020016000915091509054906101000a900473ffffffffffffffffffffffffffffffffffffffff1681565b6000610ad882612308565b610b17576040517f08c379a0000000000000000000000000000000000000000000000000000000008152600401610b0e9061497e565b60405180910390fd5b6005600083815260200190815260200160002060009054906101000a900473ffffffffffffffffffffffffffffffffffffffff169050919050565b6000610b5d82610eeb565b90508073ffffffffffffffffffffffffffffffffffffffff168373ffffffffffffffffffffffffffffffffffffffff161415610bce576040517f08c379a0000000000000000000000000000000000000000000000000000000008152600401610bc590614a1e565b60405180910390fd5b8073ffffffffffffffffffffffffffffffffffffffff16610bed612374565b73ffffffffffffffffffffffffffffffffffffffff161480610c1c5750610c1b81610c16612374565b61209a565b5b610c5b576040517f08c379a0000000000000000000000000000000000000000000000000000000008152600401610c52906148fe565b60405180910390fd5b610c65838361237c565b505050565b600c6020528060005260406000206000915090508054610c8990614d1e565b80601f0160208091040260200160405190810160405280929190818152602001828054610cb590614d1e565b8015610d025780601f10610cd757610100808354040283529160200191610d02565b820191906000526020600020905b815481529060010190602001808311610ce557829003601f168201915b505050505081565b6000600980549050905090565b610d28610d22612374565b82612435565b610d67576040517f08c379a0000000000000000000000000000000000000000000000000000000008152600401610d5e90614a5e565b60405180910390fd5b610d72838383612513565b505050565b6000610d8283610fce565b8210610dc3576040517f08c379a0000000000000000000000000000000000000000000000000000000008152600401610dba906147fe565b60405180910390fd5b600760008473ffffffffffffffffffffffffffffffffffffffff1673ffffffffffffffffffffffffffffffffffffffff168152602001908152602001600020600083815260200190815260200160002054905092915050565b610e3783838360405180602001604052806000815250611b10565b505050565b60136020528060005260406000206000915090505481565b6000610e5e610d0a565b8210610e9f576040517f08c379a0000000000000000000000000000000000000000000000000000000008152600401610e9690614a7e565b60405180910390fd5b60098281548110610ed9577f4e487b7100000000000000000000000000000000000000000000000000000000600052603260045260246000fd5b90600052602060002001549050919050565b6000806003600084815260200190815260200160002060009054906101000a900473ffffffffffffffffffffffffffffffffffffffff169050600073ffffffffffffffffffffffffffffffffffffffff168173ffffffffffffffffffffffffffffffffffffffff161415610f94576040517f08c379a0000000000000000000000000000000000000000000000000000000008152600401610f8b9061493e565b60405180910390fd5b80915050919050565b600d6020528160005260406000208181548110610fb957600080fd5b90600052602060002001600091509150505481565b60008073ffffffffffffffffffffffffffffffffffffffff168273ffffffffffffffffffffffffffffffffffffffff16141561103f576040517f08c379a00000000000000000000000000000000000000000000000000000000081526004016110369061491e565b60405180910390fd5b600460008373ffffffffffffffffffffffffffffffffffffffff1673ffffffffffffffffffffffffffffffffffffffff168152602001908152602001600020549050919050565b61108e612374565b73ffffffffffffffffffffffffffffffffffffffff166110ac611300565b73ffffffffffffffffffffffffffffffffffffffff1614611102576040517f08c379a00000000000000000000000000000000000000000000000000000000081526004016110f9906149be565b60405180910390fd5b61110c600061276f565b565b60146020528060005260406000206000915054906101000a900473ffffffffffffffffffffffffffffffffffffffff1681565b600e602052816000526040600020818154811061115d57600080fd5b906000526020600020016000915091509054906101000a900473ffffffffffffffffffffffffffffffffffffffff1681565b6111a261119a611300565b600b54612833565b81600c6000600b54815260200190815260200160002090805190602001906111cb929190613912565b50600d60003373ffffffffffffffffffffffffffffffffffffffff1673ffffffffffffffffffffffffffffffffffffffff168152602001908152602001600020600b549080600181540180825580915050600190039060005260206000200160009091909190915055600e6000828152602001908152602001600020339080600181540180825580915050600190039060005260206000200160009091909190916101000a81548173ffffffffffffffffffffffffffffffffffffffff021916908373ffffffffffffffffffffffffffffffffffffffff160217905550600f6000828152602001908152602001600020600b549080600181540180825580915050600190039060005260206000200160009091909190915055600b60008154809291906112f790614d50565b91905055505050565b60008060009054906101000a900473ffffffffffffffffffffffffffffffffffffffff16905090565b600061133482610fce565b905060008167ffffffffffffffff811115611378577f4e487b7100000000000000000000000000000000000000000000000000000000600052604160045260246000fd5b6040519080825280602002602001820160405280156113a65781602001602082028036833780820191505090505b509050600d60008473ffffffffffffffffffffffffffffffffffffffff1673ffffffffffffffffffffffffffffffffffffffff16815260200190815260200160002080548060200260200160405190810160405280929190818152602001828054801561143257602002820191906000526020600020905b81548152602001906001019080831161141e575b50505050509050505050565b67016345785d8a0000341015611489576040517f08c379a000000000000000000000000000000000000000000000000000000000815260040161148090614a9e565b60405180910390fd5b60116000828152602001908152602001600020546013600083815260200190815260200160002054106114f1576040517f08c379a00000000000000000000000000000000000000000000000000000000081526004016114e890614a3e565b60405180910390fd5b42601260008381526020019081526020016000205411611546576040517f08c379a000000000000000000000000000000000000000000000000000000000815260040161153d9061499e565b60405180910390fd5b600e6000828152602001908152602001600020339080600181540180825580915050600190039060005260206000200160009091909190916101000a81548173ffffffffffffffffffffffffffffffffffffffff021916908373ffffffffffffffffffffffffffffffffffffffff16021790555067016345785d8a00006013600083815260200190815260200160002060008282546115e59190614bad565b925050819055506116886040518060400160405280600781526020017f7072696365203a0000000000000000000000000000000000000000000000000081525060116000848152602001908152602001600020546040518060400160405280600a81526020017f66756e64696e67506f74000000000000000000000000000000000000000000008152506013600086815260200190815260200160002054612a01565b50565b60606002805461169a90614d1e565b80601f01602080910402602001604051908101604052809291908181526020018280546116c690614d1e565b80156117135780601f106116e857610100808354040283529160200191611713565b820191906000526020600020905b8154815290600101906020018083116116f657829003601f168201915b5050505050905090565b61172f611728612374565b8383612aa3565b5050565b600b5481565b611744338383612513565b5050565b60126020528060005260406000206000915090505481565b600080600e60008481526020019081526020016000206000815481106117af577f4e487b7100000000000000000000000000000000000000000000000000000000600052603260045260246000fd5b9060005260206000200160009054906101000a900473ffffffffffffffffffffffffffffffffffffffff1690506000600e60008581526020019081526020016000208054905090506118366040518060400160405280600f81526020017f7061727469636970616e7473436e74000000000000000000000000000000000081525082612c10565b60005b6001826118469190614c34565b8110156119555760106000868152602001908152602001600020600e60008781526020019081526020016000206001836118809190614bad565b815481106118b7577f4e487b7100000000000000000000000000000000000000000000000000000000600052603260045260246000fd5b9060005260206000200160009054906101000a900473ffffffffffffffffffffffffffffffffffffffff169080600181540180825580915050600190039060005260206000200160009091909190916101000a81548173ffffffffffffffffffffffffffffffffffffffff021916908373ffffffffffffffffffffffffffffffffffffffff160217905550808061194d90614d50565b915050611839565b60106000868152602001908152602001600020839080600181540180825580915050600190039060005260206000200160009091909190916101000a81548173ffffffffffffffffffffffffffffffffffffffff021916908373ffffffffffffffffffffffffffffffffffffffff160217905550600090505b81811015611a6757611a54601060008781526020019081526020016000208281548110611a24577f4e487b7100000000000000000000000000000000000000000000000000000000600052603260045260246000fd5b9060005260206000200160009054906101000a900473ffffffffffffffffffffffffffffffffffffffff16612cac565b8080611a5f90614d50565b9150506119ce565b600090505b81811015611b0557611af2600e60008781526020019081526020016000208281548110611ac2577f4e487b7100000000000000000000000000000000000000000000000000000000600052603260045260246000fd5b9060005260206000200160009054906101000a900473ffffffffffffffffffffffffffffffffffffffff16612cac565b8080611afd90614d50565b915050611a6c565b819350505050919050565b611b21611b1b612374565b83612435565b611b60576040517f08c379a0000000000000000000000000000000000000000000000000000000008152600401611b5790614a5e565b60405180910390fd5b611b6c84848484612d45565b50505050565b60116020528060005260406000206000915090505481565b6000611b94612374565b73ffffffffffffffffffffffffffffffffffffffff16611bb2611300565b73ffffffffffffffffffffffffffffffffffffffff1614611c08576040517f08c379a0000000000000000000000000000000000000000000000000000000008152600401611bff906149be565b60405180910390fd5b600067016345785d8a00006011600085815260200190815260200160002054611c319190614c03565b90506000814244604051602001611c4992919061467b565b6040516020818303038152906040528051906020012060001c611c6c9190614da3565b90506000600e60008681526020019081526020016000208281548110611cbb577f4e487b7100000000000000000000000000000000000000000000000000000000600052603260045260246000fd5b9060005260206000200160009054906101000a900473ffffffffffffffffffffffffffffffffffffffff169050611d276040518060400160405280600c81526020017f6f776e657241646472657373000000000000000000000000000000000000000081525082612da1565b806014600087815260200190815260200160002060006101000a81548173ffffffffffffffffffffffffffffffffffffffff021916908373ffffffffffffffffffffffffffffffffffffffff160217905550611d838582612e3d565b60006012600087815260200190815260200160002081905550809350505050919050565b6060611db282612308565b611df1576040517f08c379a0000000000000000000000000000000000000000000000000000000008152600401611de8906149fe565b60405180910390fd5b6000611dfb612f4e565b90506000815111611e1b5760405180602001604052806000815250611e46565b80611e2584612f65565b604051602001611e36929190614657565b6040516020818303038152906040525b915050919050565b611e5782613112565b611e6333600b54612833565b81600c6000600b5481526020019081526020016000209080519060200190611e8c929190613912565b50600d60003373ffffffffffffffffffffffffffffffffffffffff1673ffffffffffffffffffffffffffffffffffffffff168152602001908152602001600020600b5490806001815401808255809150506001900390600052602060002001600090919091909150558060116000600b548152602001908152602001600020819055506201518042611f1e9190614bad565b60126000600b54815260200190815260200160002081905550600b6000815480929190611f4a90614d50565b91905055505050565b6000611f5e83611760565b9050611f69816131ab565b60005b8181101561206357612050611f7f611300565b601060008781526020019081526020016000208381548110611fca577f4e487b7100000000000000000000000000000000000000000000000000000000600052603260045260246000fd5b9060005260206000200160009054906101000a900473ffffffffffffffffffffffffffffffffffffffff16600f60008881526020019081526020016000208481548110612040577f4e487b7100000000000000000000000000000000000000000000000000000000600052603260045260246000fd5b9060005260206000200154612513565b808061205b90614d50565b915050611f6c565b50505050565b600f602052816000526040600020818154811061208557600080fd5b90600052602060002001600091509150505481565b6000600660008473ffffffffffffffffffffffffffffffffffffffff1673ffffffffffffffffffffffffffffffffffffffff16815260200190815260200160002060008373ffffffffffffffffffffffffffffffffffffffff1673ffffffffffffffffffffffffffffffffffffffff16815260200190815260200160002060009054906101000a900460ff16905092915050565b612136612374565b73ffffffffffffffffffffffffffffffffffffffff16612154611300565b73ffffffffffffffffffffffffffffffffffffffff16146121aa576040517f08c379a00000000000000000000000000000000000000000000000000000000081526004016121a1906149be565b60405180910390fd5b600073ffffffffffffffffffffffffffffffffffffffff168173ffffffffffffffffffffffffffffffffffffffff16141561221a576040517f08c379a00000000000000000000000000000000000000000000000000000000081526004016122119061483e565b60405180910390fd5b6122238161276f565b50565b60007f80ac58cd000000000000000000000000000000000000000000000000000000007bffffffffffffffffffffffffffffffffffffffffffffffffffffffff1916827bffffffffffffffffffffffffffffffffffffffffffffffffffffffff191614806122f157507f5b5e139f000000000000000000000000000000000000000000000000000000007bffffffffffffffffffffffffffffffffffffffffffffffffffffffff1916827bffffffffffffffffffffffffffffffffffffffffffffffffffffffff1916145b80612301575061230082613244565b5b9050919050565b60008073ffffffffffffffffffffffffffffffffffffffff166003600084815260200190815260200160002060009054906101000a900473ffffffffffffffffffffffffffffffffffffffff1673ffffffffffffffffffffffffffffffffffffffff1614159050919050565b600033905090565b816005600083815260200190815260200160002060006101000a81548173ffffffffffffffffffffffffffffffffffffffff021916908373ffffffffffffffffffffffffffffffffffffffff160217905550808273ffffffffffffffffffffffffffffffffffffffff166123ef83610eeb565b73ffffffffffffffffffffffffffffffffffffffff167f8c5be1e5ebec7d5bd14f71427d1e84f3dd0314c0f7b2291e5b200ac8c7c3b92560405160405180910390a45050565b600061244082612308565b61247f576040517f08c379a0000000000000000000000000000000000000000000000000000000008152600401612476906148be565b60405180910390fd5b600061248a83610eeb565b90508073ffffffffffffffffffffffffffffffffffffffff168473ffffffffffffffffffffffffffffffffffffffff1614806124f957508373ffffffffffffffffffffffffffffffffffffffff166124e184610acd565b73ffffffffffffffffffffffffffffffffffffffff16145b8061250a5750612509818561209a565b5b91505092915050565b8273ffffffffffffffffffffffffffffffffffffffff1661253382610eeb565b73ffffffffffffffffffffffffffffffffffffffff1614612589576040517f08c379a0000000000000000000000000000000000000000000000000000000008152600401612580906149de565b60405180910390fd5b600073ffffffffffffffffffffffffffffffffffffffff168273ffffffffffffffffffffffffffffffffffffffff1614156125f9576040517f08c379a00000000000000000000000000000000000000000000000000000000081526004016125f09061487e565b60405180910390fd5b6126048383836132ae565b61260f60008261237c565b6001600460008573ffffffffffffffffffffffffffffffffffffffff1673ffffffffffffffffffffffffffffffffffffffff168152602001908152602001600020600082825461265f9190614c34565b925050819055506001600460008473ffffffffffffffffffffffffffffffffffffffff1673ffffffffffffffffffffffffffffffffffffffff16815260200190815260200160002060008282546126b69190614bad565b92505081905550816003600083815260200190815260200160002060006101000a81548173ffffffffffffffffffffffffffffffffffffffff021916908373ffffffffffffffffffffffffffffffffffffffff160217905550808273ffffffffffffffffffffffffffffffffffffffff168473ffffffffffffffffffffffffffffffffffffffff167fddf252ad1be2c89b69c2b068fc378daa952ba7f163c4a11628f55a4df523b3ef60405160405180910390a4505050565b60008060009054906101000a900473ffffffffffffffffffffffffffffffffffffffff169050816000806101000a81548173ffffffffffffffffffffffffffffffffffffffff021916908373ffffffffffffffffffffffffffffffffffffffff1602179055508173ffffffffffffffffffffffffffffffffffffffff168173ffffffffffffffffffffffffffffffffffffffff167f8be0079c531659141344cd1fd0a4f28419497f9722a3daafe3b4186f6b6457e060405160405180910390a35050565b600073ffffffffffffffffffffffffffffffffffffffff168273ffffffffffffffffffffffffffffffffffffffff1614156128a3576040517f08c379a000000000000000000000000000000000000000000000000000000000815260040161289a9061495e565b60405180910390fd5b6128ac81612308565b156128ec576040517f08c379a00000000000000000000000000000000000000000000000000000000081526004016128e39061485e565b60405180910390fd5b6128f8600083836132ae565b6001600460008473ffffffffffffffffffffffffffffffffffffffff1673ffffffffffffffffffffffffffffffffffffffff16815260200190815260200160002060008282546129489190614bad565b92505081905550816003600083815260200190815260200160002060006101000a81548173ffffffffffffffffffffffffffffffffffffffff021916908373ffffffffffffffffffffffffffffffffffffffff160217905550808273ffffffffffffffffffffffffffffffffffffffff16600073ffffffffffffffffffffffffffffffffffffffff167fddf252ad1be2c89b69c2b068fc378daa952ba7f163c4a11628f55a4df523b3ef60405160405180910390a45050565b612a9d84848484604051602401612a1b94939291906147ab565b6040516020818303038152906040527fa0c4b225000000000000000000000000000000000000000000000000000000007bffffffffffffffffffffffffffffffffffffffffffffffffffffffff19166020820180517bffffffffffffffffffffffffffffffffffffffffffffffffffffffff83818316178352505050506133c2565b50505050565b8173ffffffffffffffffffffffffffffffffffffffff168373ffffffffffffffffffffffffffffffffffffffff161415612b12576040517f08c379a0000000000000000000000000000000000000000000000000000000008152600401612b099061489e565b60405180910390fd5b80600660008573ffffffffffffffffffffffffffffffffffffffff1673ffffffffffffffffffffffffffffffffffffffff16815260200190815260200160002060008473ffffffffffffffffffffffffffffffffffffffff1673ffffffffffffffffffffffffffffffffffffffff16815260200190815260200160002060006101000a81548160ff0219169083151502179055508173ffffffffffffffffffffffffffffffffffffffff168373ffffffffffffffffffffffffffffffffffffffff167f17307eab39ab6107e8899845ad3d59bd9653f200f220920489ca2b5937696c3183604051612c03919061470e565b60405180910390a3505050565b612ca88282604051602401612c2692919061477b565b6040516020818303038152906040527f9710a9d0000000000000000000000000000000000000000000000000000000007bffffffffffffffffffffffffffffffffffffffffffffffffffffffff19166020820180517bffffffffffffffffffffffffffffffffffffffffffffffffffffffff83818316178352505050506133c2565b5050565b612d4281604051602401612cc091906146a7565b6040516020818303038152906040527f2c2ecbc2000000000000000000000000000000000000000000000000000000007bffffffffffffffffffffffffffffffffffffffffffffffffffffffff19166020820180517bffffffffffffffffffffffffffffffffffffffffffffffffffffffff83818316178352505050506133c2565b50565b612d50848484612513565b612d5c848484846133eb565b612d9b576040517f08c379a0000000000000000000000000000000000000000000000000000000008152600401612d929061481e565b60405180910390fd5b50505050565b612e398282604051602401612db792919061474b565b6040516020818303038152906040527f319af333000000000000000000000000000000000000000000000000000000007bffffffffffffffffffffffffffffffffffffffffffffffffffffffff19166020820180517bffffffffffffffffffffffffffffffffffffffffffffffffffffffff83818316178352505050506133c2565b5050565b6000601160008481526020019081526020016000205490506000612e6084610eeb565b905060136000858152602001908152602001600020548214612eb7576040517f08c379a0000000000000000000000000000000000000000000000000000000008152600401612eae906148de565b60405180910390fd5b612ef66040518060400160405280600881526020017f5f746f6b656e494400000000000000000000000000000000000000000000000081525085612c10565b612f01818486612513565b8073ffffffffffffffffffffffffffffffffffffffff166108fc839081150290604051600060405180830381858888f19350505050158015612f47573d6000803e3d6000fd5b5050505050565b606060405180602001604052806000815250905090565b60606000821415612fad576040518060400160405280600181526020017f3000000000000000000000000000000000000000000000000000000000000000815250905061310d565b600082905060005b60008214612fdf578080612fc890614d50565b915050600a82612fd89190614c03565b9150612fb5565b60008167ffffffffffffffff811115613021577f4e487b7100000000000000000000000000000000000000000000000000000000600052604160045260246000fd5b6040519080825280601f01601f1916602001820160405280156130535781602001600182028036833780820191505090505b5090505b600085146131065760018261306c9190614c34565b9150600a8561307b9190614da3565b60306130879190614bad565b60f81b8183815181106130c3577f4e487b7100000000000000000000000000000000000000000000000000000000600052603260045260246000fd5b60200101907effffffffffffffffffffffffffffffffffffffffffffffffffffffffffffff1916908160001a905350600a856130ff9190614c03565b9450613057565b8093505050505b919050565b6131a8816040516024016131269190614729565b6040516020818303038152906040527f41304fac000000000000000000000000000000000000000000000000000000007bffffffffffffffffffffffffffffffffffffffffffffffffffffffff19166020820180517bffffffffffffffffffffffffffffffffffffffffffffffffffffffff83818316178352505050506133c2565b50565b613241816040516024016131bf9190614abe565b6040516020818303038152906040527ff5b1bba9000000000000000000000000000000000000000000000000000000007bffffffffffffffffffffffffffffffffffffffffffffffffffffffff19166020820180517bffffffffffffffffffffffffffffffffffffffffffffffffffffffff83818316178352505050506133c2565b50565b60007f01ffc9a7000000000000000000000000000000000000000000000000000000007bffffffffffffffffffffffffffffffffffffffffffffffffffffffff1916827bffffffffffffffffffffffffffffffffffffffffffffffffffffffff1916149050919050565b6132b9838383613582565b600073ffffffffffffffffffffffffffffffffffffffff168373ffffffffffffffffffffffffffffffffffffffff1614156132fc576132f781613587565b61333b565b8173ffffffffffffffffffffffffffffffffffffffff168373ffffffffffffffffffffffffffffffffffffffff161461333a5761333983826135d0565b5b5b600073ffffffffffffffffffffffffffffffffffffffff168273ffffffffffffffffffffffffffffffffffffffff16141561337e576133798161373d565b6133bd565b8273ffffffffffffffffffffffffffffffffffffffff168273ffffffffffffffffffffffffffffffffffffffff16146133bc576133bb8282613880565b5b5b505050565b60008151905060006a636f6e736f6c652e6c6f679050602083016000808483855afa5050505050565b600061340c8473ffffffffffffffffffffffffffffffffffffffff166138ff565b15613575578373ffffffffffffffffffffffffffffffffffffffff1663150b7a02613435612374565b8786866040518563ffffffff1660e01b815260040161345794939291906146c2565b602060405180830381600087803b15801561347157600080fd5b505af19250505080156134a257506040513d601f19601f8201168201806040525081019061349f9190613cbe565b60015b613525573d80600081146134d2576040519150601f19603f3d011682016040523d82523d6000602084013e6134d7565b606091505b5060008151141561351d576040517f08c379a00000000000000000000000000000000000000000000000000000000081526004016135149061481e565b60405180910390fd5b805181602001fd5b63150b7a0260e01b7bffffffffffffffffffffffffffffffffffffffffffffffffffffffff1916817bffffffffffffffffffffffffffffffffffffffffffffffffffffffff19161491505061357a565b600190505b949350505050565b505050565b600980549050600a600083815260200190815260200160002081905550600981908060018154018082558091505060019003906000526020600020016000909190919091505550565b600060016135dd84610fce565b6135e79190614c34565b90506000600860008481526020019081526020016000205490508181146136cc576000600760008673ffffffffffffffffffffffffffffffffffffffff1673ffffffffffffffffffffffffffffffffffffffff168152602001908152602001600020600084815260200190815260200160002054905080600760008773ffffffffffffffffffffffffffffffffffffffff1673ffffffffffffffffffffffffffffffffffffffff168152602001908152602001600020600084815260200190815260200160002081905550816008600083815260200190815260200160002081905550505b6008600084815260200190815260200160002060009055600760008573ffffffffffffffffffffffffffffffffffffffff1673ffffffffffffffffffffffffffffffffffffffff16815260200190815260200160002060008381526020019081526020016000206000905550505050565b600060016009805490506137519190614c34565b90506000600a60008481526020019081526020016000205490506000600983815481106137a7577f4e487b7100000000000000000000000000000000000000000000000000000000600052603260045260246000fd5b9060005260206000200154905080600983815481106137ef577f4e487b7100000000000000000000000000000000000000000000000000000000600052603260045260246000fd5b906000526020600020018190555081600a600083815260200190815260200160002081905550600a6000858152602001908152602001600020600090556009805480613864577f4e487b7100000000000000000000000000000000000000000000000000000000600052603160045260246000fd5b6001900381819060005260206000200160009055905550505050565b600061388b83610fce565b905081600760008573ffffffffffffffffffffffffffffffffffffffff1673ffffffffffffffffffffffffffffffffffffffff168152602001908152602001600020600083815260200190815260200160002081905550806008600084815260200190815260200160002081905550505050565b600080823b905060008111915050919050565b82805461391e90614d1e565b90600052602060002090601f0160209004810192826139405760008555613987565b82601f1061395957805160ff1916838001178555613987565b82800160010185558215613987579182015b8281111561398657825182559160200191906001019061396b565b5b5090506139949190613998565b5090565b5b808211156139b1576000816000905550600101613999565b5090565b60006139c86139c384614b0a565b614ad9565b9050828152602081018484840111156139e057600080fd5b6139eb848285614cdc565b509392505050565b6000613a06613a0184614b3a565b614ad9565b905082815260208101848484011115613a1e57600080fd5b613a29848285614cdc565b509392505050565b600081359050613a4081614ea1565b92915050565b600081359050613a5581614eb8565b92915050565b600081359050613a6a81614ecf565b92915050565b600081519050613a7f81614ecf565b92915050565b600082601f830112613a9657600080fd5b8135613aa68482602086016139b5565b91505092915050565b600082601f830112613ac057600080fd5b8135613ad08482602086016139f3565b91505092915050565b600081359050613ae881614ee6565b92915050565b600060208284031215613b0057600080fd5b6000613b0e84828501613a31565b91505092915050565b60008060408385031215613b2a57600080fd5b6000613b3885828601613a31565b9250506020613b4985828601613a31565b9150509250929050565b600080600060608486031215613b6857600080fd5b6000613b7686828701613a31565b9350506020613b8786828701613a31565b9250506040613b9886828701613ad9565b9150509250925092565b60008060008060808587031215613bb857600080fd5b6000613bc687828801613a31565b9450506020613bd787828801613a31565b9350506040613be887828801613ad9565b925050606085013567ffffffffffffffff811115613c0557600080fd5b613c1187828801613a85565b91505092959194509250565b60008060408385031215613c3057600080fd5b6000613c3e85828601613a31565b9250506020613c4f85828601613a46565b9150509250929050565b60008060408385031215613c6c57600080fd5b6000613c7a85828601613a31565b9250506020613c8b85828601613ad9565b9150509250929050565b600060208284031215613ca757600080fd5b6000613cb584828501613a5b565b91505092915050565b600060208284031215613cd057600080fd5b6000613cde84828501613a70565b91505092915050565b60008060408385031215613cfa57600080fd5b600083013567ffffffffffffffff811115613d1457600080fd5b613d2085828601613aaf565b9250506020613d3185828601613ad9565b9150509250929050565b600060208284031215613d4d57600080fd5b6000613d5b84828501613ad9565b91505092915050565b60008060408385031215613d7757600080fd5b6000613d8585828601613ad9565b9250506020613d9685828601613a31565b9150509250929050565b60008060408385031215613db357600080fd5b6000613dc185828601613ad9565b9250506020613dd285828601613ad9565b9150509250929050565b613de581614c68565b82525050565b613df481614c7a565b82525050565b6000613e0582614b6a565b613e0f8185614b80565b9350613e1f818560208601614ceb565b613e2881614e90565b840191505092915050565b6000613e3e82614b75565b613e488185614b91565b9350613e58818560208601614ceb565b613e6181614e90565b840191505092915050565b6000613e7782614b75565b613e818185614ba2565b9350613e91818560208601614ceb565b80840191505092915050565b6000613eaa602b83614b91565b91507f455243373231456e756d657261626c653a206f776e657220696e646578206f7560008301527f74206f6620626f756e64730000000000000000000000000000000000000000006020830152604082019050919050565b6000613f10603283614b91565b91507f4552433732313a207472616e7366657220746f206e6f6e20455243373231526560008301527f63656976657220696d706c656d656e74657200000000000000000000000000006020830152604082019050919050565b6000613f76602683614b91565b91507f4f776e61626c653a206e6577206f776e657220697320746865207a65726f206160008301527f64647265737300000000000000000000000000000000000000000000000000006020830152604082019050919050565b6000613fdc601c83614b91565b91507f4552433732313a20746f6b656e20616c7265616479206d696e746564000000006000830152602082019050919050565b600061401c602483614b91565b91507f4552433732313a207472616e7366657220746f20746865207a65726f2061646460008301527f72657373000000000000000000000000000000000000000000000000000000006020830152604082019050919050565b6000614082601983614b91565b91507f4552433732313a20617070726f766520746f2063616c6c6572000000000000006000830152602082019050919050565b60006140c2602c83614b91565b91507f4552433732313a206f70657261746f7220717565727920666f72206e6f6e657860008301527f697374656e7420746f6b656e00000000000000000000000000000000000000006020830152604082019050919050565b6000614128601383614b91565b91507f7072696365206973206e6f7420657175616c21000000000000000000000000006000830152602082019050919050565b6000614168603883614b91565b91507f4552433732313a20617070726f76652063616c6c6572206973206e6f74206f7760008301527f6e6572206e6f7220617070726f76656420666f7220616c6c00000000000000006020830152604082019050919050565b60006141ce602a83614b91565b91507f4552433732313a2062616c616e636520717565727920666f7220746865207a6560008301527f726f2061646472657373000000000000000000000000000000000000000000006020830152604082019050919050565b6000614234602983614b91565b91507f4552433732313a206f776e657220717565727920666f72206e6f6e657869737460008301527f656e7420746f6b656e00000000000000000000000000000000000000000000006020830152604082019050919050565b600061429a602083614b91565b91507f4552433732313a206d696e7420746f20746865207a65726f20616464726573736000830152602082019050919050565b60006142da602c83614b91565b91507f4552433732313a20617070726f76656420717565727920666f72206e6f6e657860008301527f697374656e7420746f6b656e00000000000000000000000000000000000000006020830152604082019050919050565b6000614340601f83614b91565b91507f46756e64696e6720456e64203a20526561636820746f20446561644c696e65006000830152602082019050919050565b6000614380602083614b91565b91507f4f776e61626c653a2063616c6c6572206973206e6f7420746865206f776e65726000830152602082019050919050565b60006143c0602983614b91565b91507f4552433732313a207472616e73666572206f6620746f6b656e2074686174206960008301527f73206e6f74206f776e00000000000000000000000000000000000000000000006020830152604082019050919050565b6000614426602f83614b91565b91507f4552433732314d657461646174613a2055524920717565727920666f72206e6f60008301527f6e6578697374656e7420746f6b656e00000000000000000000000000000000006020830152604082019050919050565b600061448c602183614b91565b91507f4552433732313a20617070726f76616c20746f2063757272656e74206f776e6560008301527f72000000000000000000000000000000000000000000000000000000000000006020830152604082019050919050565b60006144f2600f83614b91565b91507f46756e64696e67205375636365737300000000000000000000000000000000006000830152602082019050919050565b6000614532603183614b91565b91507f4552433732313a207472616e736665722063616c6c6572206973206e6f74206f60008301527f776e6572206e6f7220617070726f7665640000000000000000000000000000006020830152604082019050919050565b6000614598602c83614b91565b91507f455243373231456e756d657261626c653a20676c6f62616c20696e646578206f60008301527f7574206f6620626f756e647300000000000000000000000000000000000000006020830152604082019050919050565b60006145fe601c83614b91565b91507f46756e64696e67204661696c2c2062616c616e6365206973206c6f77000000006000830152602082019050919050565b61463a81614cd2565b82525050565b61465161464c82614cd2565b614d99565b82525050565b60006146638285613e6c565b915061466f8284613e6c565b91508190509392505050565b60006146878285614640565b6020820191506146978284614640565b6020820191508190509392505050565b60006020820190506146bc6000830184613ddc565b92915050565b60006080820190506146d76000830187613ddc565b6146e46020830186613ddc565b6146f16040830185614631565b81810360608301526147038184613dfa565b905095945050505050565b60006020820190506147236000830184613deb565b92915050565b600060208201905081810360008301526147438184613e33565b905092915050565b600060408201905081810360008301526147658185613e33565b90506147746020830184613ddc565b9392505050565b600060408201905081810360008301526147958185613e33565b90506147a46020830184614631565b9392505050565b600060808201905081810360008301526147c58187613e33565b90506147d46020830186614631565b81810360408301526147e68185613e33565b90506147f56060830184614631565b95945050505050565b6000602082019050818103600083015261481781613e9d565b9050919050565b6000602082019050818103600083015261483781613f03565b9050919050565b6000602082019050818103600083015261485781613f69565b9050919050565b6000602082019050818103600083015261487781613fcf565b9050919050565b600060208201905081810360008301526148978161400f565b9050919050565b600060208201905081810360008301526148b781614075565b9050919050565b600060208201905081810360008301526148d7816140b5565b9050919050565b600060208201905081810360008301526148f78161411b565b9050919050565b600060208201905081810360008301526149178161415b565b9050919050565b60006020820190508181036000830152614937816141c1565b9050919050565b6000602082019050818103600083015261495781614227565b9050919050565b600060208201905081810360008301526149778161428d565b9050919050565b60006020820190508181036000830152614997816142cd565b9050919050565b600060208201905081810360008301526149b781614333565b9050919050565b600060208201905081810360008301526149d781614373565b9050919050565b600060208201905081810360008301526149f7816143b3565b9050919050565b60006020820190508181036000830152614a1781614419565b9050919050565b60006020820190508181036000830152614a378161447f565b9050919050565b60006020820190508181036000830152614a57816144e5565b9050919050565b60006020820190508181036000830152614a7781614525565b9050919050565b60006020820190508181036000830152614a978161458b565b9050919050565b60006020820190508181036000830152614ab7816145f1565b9050919050565b6000602082019050614ad36000830184614631565b92915050565b6000604051905081810181811067ffffffffffffffff82111715614b0057614aff614e61565b5b8060405250919050565b600067ffffffffffffffff821115614b2557614b24614e61565b5b601f19601f8301169050602081019050919050565b600067ffffffffffffffff821115614b5557614b54614e61565b5b601f19601f8301169050602081019050919050565b600081519050919050565b600081519050919050565b600082825260208201905092915050565b600082825260208201905092915050565b600081905092915050565b6000614bb882614cd2565b9150614bc383614cd2565b9250827fffffffffffffffffffffffffffffffffffffffffffffffffffffffffffffffff03821115614bf857614bf7614dd4565b5b828201905092915050565b6000614c0e82614cd2565b9150614c1983614cd2565b925082614c2957614c28614e03565b5b828204905092915050565b6000614c3f82614cd2565b9150614c4a83614cd2565b925082821015614c5d57614c5c614dd4565b5b828203905092915050565b6000614c7382614cb2565b9050919050565b60008115159050919050565b60007fffffffff0000000000000000000000000000000000000000000000000000000082169050919050565b600073ffffffffffffffffffffffffffffffffffffffff82169050919050565b6000819050919050565b82818337600083830152505050565b60005b83811015614d09578082015181840152602081019050614cee565b83811115614d18576000848401525b50505050565b60006002820490506001821680614d3657607f821691505b60208210811415614d4a57614d49614e32565b5b50919050565b6000614d5b82614cd2565b91507fffffffffffffffffffffffffffffffffffffffffffffffffffffffffffffffff821415614d8e57614d8d614dd4565b5b600182019050919050565b6000819050919050565b6000614dae82614cd2565b9150614db983614cd2565b925082614dc957614dc8614e03565b5b828206905092915050565b7f4e487b7100000000000000000000000000000000000000000000000000000000600052601160045260246000fd5b7f4e487b7100000000000000000000000000000000000000000000000000000000600052601260045260246000fd5b7f4e487b7100000000000000000000000000000000000000000000000000000000600052602260045260246000fd5b7f4e487b7100000000000000000000000000000000000000000000000000000000600052604160045260246000fd5b6000601f19601f8301169050919050565b614eaa81614c68565b8114614eb557600080fd5b50565b614ec181614c7a565b8114614ecc57600080fd5b50565b614ed881614c86565b8114614ee357600080fd5b50565b614eef81614cd2565b8114614efa57600080fd5b5056fea26469706673582212205bff3ed76f6fc09f50222e0d7e0949903de23a8bf035cb1c8e1cb5bfd89e53c764736f6c63430008000033",
  "linkReferences": {},
  "deployedLinkReferences": {}
}