{
  "_format": "hh-sol-artifact-1",
  "contractName": "MADTOKEN",
  "sourceName": "contracts/user.sol",
  "abi": [
    {
      "inputs": [],
      "stateMutability": "nonpayable",
      "type": "constructor"
    },
    {
      "anonymous": false,
      "inputs": [
        {
          "indexed": true,
          "internalType": "address",
          "name": "owner",
          "type": "address"
        },
        {
          "indexed": true,
          "internalType": "address",
          "name": "approved",
          "type": "address"
        },
        {
          "indexed": true,
          "internalType": "uint256",
          "name": "tokenId",
          "type": "uint256"
        }
      ],
      "name": "Approval",
      "type": "event"
    },
    {
      "anonymous": false,
      "inputs": [
        {
          "indexed": true,
          "internalType": "address",
          "name": "owner",
          "type": "address"
        },
        {
          "indexed": true,
          "internalType": "address",
          "name": "operator",
          "type": "address"
        },
        {
          "indexed": false,
          "internalType": "bool",
          "name": "approved",
          "type": "bool"
        }
      ],
      "name": "ApprovalForAll",
      "type": "event"
    },
    {
      "anonymous": false,
      "inputs": [
        {
          "indexed": true,
          "internalType": "address",
          "name": "previousOwner",
          "type": "address"
        },
        {
          "indexed": true,
          "internalType": "address",
          "name": "newOwner",
          "type": "address"
        }
      ],
      "name": "OwnershipTransferred",
      "type": "event"
    },
    {
      "anonymous": false,
      "inputs": [
        {
          "indexed": true,
          "internalType": "address",
          "name": "from",
          "type": "address"
        },
        {
          "indexed": true,
          "internalType": "address",
          "name": "to",
          "type": "address"
        },
        {
          "indexed": true,
          "internalType": "uint256",
          "name": "tokenId",
          "type": "uint256"
        }
      ],
      "name": "Transfer",
      "type": "event"
    },
    {
      "inputs": [
        {
          "internalType": "address",
          "name": "to",
          "type": "address"
        },
        {
          "internalType": "uint256",
          "name": "tokenId",
          "type": "uint256"
        }
      ],
      "name": "approve",
      "outputs": [],
      "stateMutability": "nonpayable",
      "type": "function"
    },
    {
      "inputs": [
        {
          "internalType": "address",
          "name": "owner",
          "type": "address"
        }
      ],
      "name": "balanceOf",
      "outputs": [
        {
          "internalType": "uint256",
          "name": "",
          "type": "uint256"
        }
      ],
      "stateMutability": "view",
      "type": "function"
    },
    {
      "inputs": [
        {
          "internalType": "uint256",
          "name": "tokenId",
          "type": "uint256"
        }
      ],
      "name": "getApproved",
      "outputs": [
        {
          "internalType": "address",
          "name": "",
          "type": "address"
        }
      ],
      "stateMutability": "view",
      "type": "function"
    },
    {
      "inputs": [
        {
          "internalType": "address",
          "name": "owner",
          "type": "address"
        },
        {
          "internalType": "address",
          "name": "operator",
          "type": "address"
        }
      ],
      "name": "isApprovedForAll",
      "outputs": [
        {
          "internalType": "bool",
          "name": "",
          "type": "bool"
        }
      ],
      "stateMutability": "view",
      "type": "function"
    },
    {
      "inputs": [],
      "name": "name",
      "outputs": [
        {
          "internalType": "string",
          "name": "",
          "type": "string"
        }
      ],
      "stateMutability": "view",
      "type": "function"
    },
    {
      "inputs": [],
      "name": "owner",
      "outputs": [
        {
          "internalType": "address",
          "name": "",
          "type": "address"
        }
      ],
      "stateMutability": "view",
      "type": "function"
    },
    {
      "inputs": [
        {
          "internalType": "uint256",
          "name": "tokenId",
          "type": "uint256"
        }
      ],
      "name": "ownerOf",
      "outputs": [
        {
          "internalType": "address",
          "name": "",
          "type": "address"
        }
      ],
      "stateMutability": "view",
      "type": "function"
    },
    {
      "inputs": [],
      "name": "renounceOwnership",
      "outputs": [],
      "stateMutability": "nonpayable",
      "type": "function"
    },
    {
      "inputs": [
        {
          "internalType": "address",
          "name": "to",
          "type": "address"
        },
        {
          "internalType": "string",
          "name": "uri",
          "type": "string"
        }
      ],
      "name": "safeMint",
      "outputs": [],
      "stateMutability": "nonpayable",
      "type": "function"
    },
    {
      "inputs": [
        {
          "internalType": "address",
          "name": "from",
          "type": "address"
        },
        {
          "internalType": "address",
          "name": "to",
          "type": "address"
        },
        {
          "internalType": "uint256",
          "name": "tokenId",
          "type": "uint256"
        }
      ],
      "name": "safeTransferFrom",
      "outputs": [],
      "stateMutability": "nonpayable",
      "type": "function"
    },
    {
      "inputs": [
        {
          "internalType": "address",
          "name": "from",
          "type": "address"
        },
        {
          "internalType": "address",
          "name": "to",
          "type": "address"
        },
        {
          "internalType": "uint256",
          "name": "tokenId",
          "type": "uint256"
        },
        {
          "internalType": "bytes",
          "name": "_data",
          "type": "bytes"
        }
      ],
      "name": "safeTransferFrom",
      "outputs": [],
      "stateMutability": "nonpayable",
      "type": "function"
    },
    {
      "inputs": [
        {
          "internalType": "address",
          "name": "operator",
          "type": "address"
        },
        {
          "internalType": "bool",
          "name": "approved",
          "type": "bool"
        }
      ],
      "name": "setApprovalForAll",
      "outputs": [],
      "stateMutability": "nonpayable",
      "type": "function"
    },
    {
      "inputs": [
        {
          "internalType": "bytes4",
          "name": "interfaceId",
          "type": "bytes4"
        }
      ],
      "name": "supportsInterface",
      "outputs": [
        {
          "internalType": "bool",
          "name": "",
          "type": "bool"
        }
      ],
      "stateMutability": "view",
      "type": "function"
    },
    {
      "inputs": [],
      "name": "symbol",
      "outputs": [
        {
          "internalType": "string",
          "name": "",
          "type": "string"
        }
      ],
      "stateMutability": "view",
      "type": "function"
    },
    {
      "inputs": [
        {
          "internalType": "uint256",
          "name": "index",
          "type": "uint256"
        }
      ],
      "name": "tokenByIndex",
      "outputs": [
        {
          "internalType": "uint256",
          "name": "",
          "type": "uint256"
        }
      ],
      "stateMutability": "view",
      "type": "function"
    },
    {
      "inputs": [
        {
          "internalType": "address",
          "name": "owner",
          "type": "address"
        },
        {
          "internalType": "uint256",
          "name": "index",
          "type": "uint256"
        }
      ],
      "name": "tokenOfOwnerByIndex",
      "outputs": [
        {
          "internalType": "uint256",
          "name": "",
          "type": "uint256"
        }
      ],
      "stateMutability": "view",
      "type": "function"
    },
    {
      "inputs": [
        {
          "internalType": "uint256",
          "name": "tokenId",
          "type": "uint256"
        }
      ],
      "name": "tokenURI",
      "outputs": [
        {
          "internalType": "string",
          "name": "",
          "type": "string"
        }
      ],
      "stateMutability": "view",
      "type": "function"
    },
    {
      "inputs": [],
      "name": "totalSupply",
      "outputs": [
        {
          "internalType": "uint256",
          "name": "",
          "type": "uint256"
        }
      ],
      "stateMutability": "view",
      "type": "function"
    },
    {
      "inputs": [
        {
          "internalType": "address",
          "name": "from",
          "type": "address"
        },
        {
          "internalType": "address",
          "name": "to",
          "type": "address"
        },
        {
          "internalType": "uint256",
          "name": "tokenId",
          "type": "uint256"
        }
      ],
      "name": "transferFrom",
      "outputs": [],
      "stateMutability": "nonpayable",
      "type": "function"
    },
    {
      "inputs": [
        {
          "internalType": "address",
          "name": "newOwner",
          "type": "address"
        }
      ],
      "name": "transferOwnership",
      "outputs": [],
      "stateMutability": "nonpayable",
      "type": "function"
    }
  ],
  "bytecode": "0x60806040523480156200001157600080fd5b506040518060400160405280600881526020017f4d4144544f4b454e0000000000000000000000000000000000000000000000008152506040518060400160405280600381526020017f4d41440000000000000000000000000000000000000000000000000000000000815250816000908051906020019062000096929190620001a6565b508060019080519060200190620000af929190620001a6565b505050620000d2620000c6620000d860201b60201c565b620000e060201b60201c565b620002bb565b600033905090565b6000600b60009054906101000a900473ffffffffffffffffffffffffffffffffffffffff16905081600b60006101000a81548173ffffffffffffffffffffffffffffffffffffffff021916908373ffffffffffffffffffffffffffffffffffffffff1602179055508173ffffffffffffffffffffffffffffffffffffffff168173ffffffffffffffffffffffffffffffffffffffff167f8be0079c531659141344cd1fd0a4f28419497f9722a3daafe3b4186f6b6457e060405160405180910390a35050565b828054620001b49062000256565b90600052602060002090601f016020900481019282620001d8576000855562000224565b82601f10620001f357805160ff191683800117855562000224565b8280016001018555821562000224579182015b828111156200022357825182559160200191906001019062000206565b5b50905062000233919062000237565b5090565b5b808211156200025257600081600090555060010162000238565b5090565b600060028204905060018216806200026f57607f821691505b602082108114156200028657620002856200028c565b5b50919050565b7f4e487b7100000000000000000000000000000000000000000000000000000000600052602260045260246000fd5b61380b80620002cb6000396000f3fe608060405234801561001057600080fd5b506004361061012c5760003560e01c806370a08231116100ad578063b88d4fde11610071578063b88d4fde14610343578063c87b56dd1461035f578063d204c45e1461038f578063e985e9c5146103ab578063f2fde38b146103db5761012c565b806370a08231146102b1578063715018a6146102e15780638da5cb5b146102eb57806395d89b4114610309578063a22cb465146103275761012c565b806323b872dd116100f457806323b872dd146101e95780632f745c591461020557806342842e0e146102355780634f6ccce7146102515780636352211e146102815761012c565b806301ffc9a71461013157806306fdde0314610161578063081812fc1461017f578063095ea7b3146101af57806318160ddd146101cb575b600080fd5b61014b60048036038101906101469190612696565b6103f7565b6040516101589190612b28565b60405180910390f35b610169610409565b6040516101769190612b43565b60405180910390f35b610199600480360381019061019491906126e8565b61049b565b6040516101a69190612ac1565b60405180910390f35b6101c960048036038101906101c4919061265a565b610520565b005b6101d3610638565b6040516101e09190612de5565b60405180910390f35b61020360048036038101906101fe9190612500565b610645565b005b61021f600480360381019061021a919061265a565b6106a5565b60405161022c9190612de5565b60405180910390f35b61024f600480360381019061024a9190612500565b61074a565b005b61026b600480360381019061026691906126e8565b61076a565b6040516102789190612de5565b60405180910390f35b61029b600480360381019061029691906126e8565b610801565b6040516102a89190612ac1565b60405180910390f35b6102cb60048036038101906102c6919061249b565b6108b3565b6040516102d89190612de5565b60405180910390f35b6102e961096b565b005b6102f36109f3565b6040516103009190612ac1565b60405180910390f35b610311610a1d565b60405161031e9190612b43565b60405180910390f35b610341600480360381019061033c91906125ca565b610aaf565b005b61035d6004803603810190610358919061254f565b610ac5565b005b610379600480360381019061037491906126e8565b610b27565b6040516103869190612b43565b60405180910390f35b6103a960048036038101906103a49190612606565b610b39565b005b6103c560048036038101906103c091906124c4565b610b6a565b6040516103d29190612b28565b60405180910390f35b6103f560048036038101906103f0919061249b565b610bfe565b005b600061040282610cf6565b9050919050565b6060600080546104189061303b565b80601f01602080910402602001604051908101604052809291908181526020018280546104449061303b565b80156104915780601f1061046657610100808354040283529160200191610491565b820191906000526020600020905b81548152906001019060200180831161047457829003601f168201915b5050505050905090565b60006104a682610d70565b6104e5576040517f08c379a00000000000000000000000000000000000000000000000000000000081526004016104dc90612d05565b60405180910390fd5b6004600083815260200190815260200160002060009054906101000a900473ffffffffffffffffffffffffffffffffffffffff169050919050565b600061052b82610801565b90508073ffffffffffffffffffffffffffffffffffffffff168373ffffffffffffffffffffffffffffffffffffffff16141561059c576040517f08c379a000000000000000000000000000000000000000000000000000000000815260040161059390612d85565b60405180910390fd5b8073ffffffffffffffffffffffffffffffffffffffff166105bb610ddc565b73ffffffffffffffffffffffffffffffffffffffff1614806105ea57506105e9816105e4610ddc565b610b6a565b5b610629576040517f08c379a000000000000000000000000000000000000000000000000000000000815260040161062090612c45565b60405180910390fd5b6106338383610de4565b505050565b6000600880549050905090565b610656610650610ddc565b82610e9d565b610695576040517f08c379a000000000000000000000000000000000000000000000000000000000815260040161068c90612da5565b60405180910390fd5b6106a0838383610f7b565b505050565b60006106b0836108b3565b82106106f1576040517f08c379a00000000000000000000000000000000000000000000000000000000081526004016106e890612b65565b60405180910390fd5b600660008473ffffffffffffffffffffffffffffffffffffffff1673ffffffffffffffffffffffffffffffffffffffff168152602001908152602001600020600083815260200190815260200160002054905092915050565b61076583838360405180602001604052806000815250610ac5565b505050565b6000610774610638565b82106107b5576040517f08c379a00000000000000000000000000000000000000000000000000000000081526004016107ac90612dc5565b60405180910390fd5b600882815481106107ef577f4e487b7100000000000000000000000000000000000000000000000000000000600052603260045260246000fd5b90600052602060002001549050919050565b6000806002600084815260200190815260200160002060009054906101000a900473ffffffffffffffffffffffffffffffffffffffff169050600073ffffffffffffffffffffffffffffffffffffffff168173ffffffffffffffffffffffffffffffffffffffff1614156108aa576040517f08c379a00000000000000000000000000000000000000000000000000000000081526004016108a190612c85565b60405180910390fd5b80915050919050565b60008073ffffffffffffffffffffffffffffffffffffffff168273ffffffffffffffffffffffffffffffffffffffff161415610924576040517f08c379a000000000000000000000000000000000000000000000000000000000815260040161091b90612c65565b60405180910390fd5b600360008373ffffffffffffffffffffffffffffffffffffffff1673ffffffffffffffffffffffffffffffffffffffff168152602001908152602001600020549050919050565b610973610ddc565b73ffffffffffffffffffffffffffffffffffffffff166109916109f3565b73ffffffffffffffffffffffffffffffffffffffff16146109e7576040517f08c379a00000000000000000000000000000000000000000000000000000000081526004016109de90612d25565b60405180910390fd5b6109f160006111d7565b565b6000600b60009054906101000a900473ffffffffffffffffffffffffffffffffffffffff16905090565b606060018054610a2c9061303b565b80601f0160208091040260200160405190810160405280929190818152602001828054610a589061303b565b8015610aa55780601f10610a7a57610100808354040283529160200191610aa5565b820191906000526020600020905b815481529060010190602001808311610a8857829003601f168201915b5050505050905090565b610ac1610aba610ddc565b838361129d565b5050565b610ad6610ad0610ddc565b83610e9d565b610b15576040517f08c379a0000000000000000000000000000000000000000000000000000000008152600401610b0c90612da5565b60405180910390fd5b610b218484848461140a565b50505050565b6060610b3282611466565b9050919050565b6000610b45600c6115b8565b9050610b51600c6115c6565b610b5b83826115dc565b610b6581836115fa565b505050565b6000600560008473ffffffffffffffffffffffffffffffffffffffff1673ffffffffffffffffffffffffffffffffffffffff16815260200190815260200160002060008373ffffffffffffffffffffffffffffffffffffffff1673ffffffffffffffffffffffffffffffffffffffff16815260200190815260200160002060009054906101000a900460ff16905092915050565b610c06610ddc565b73ffffffffffffffffffffffffffffffffffffffff16610c246109f3565b73ffffffffffffffffffffffffffffffffffffffff1614610c7a576040517f08c379a0000000000000000000000000000000000000000000000000000000008152600401610c7190612d25565b60405180910390fd5b600073ffffffffffffffffffffffffffffffffffffffff168173ffffffffffffffffffffffffffffffffffffffff161415610cea576040517f08c379a0000000000000000000000000000000000000000000000000000000008152600401610ce190612ba5565b60405180910390fd5b610cf3816111d7565b50565b60007f780e9d63000000000000000000000000000000000000000000000000000000007bffffffffffffffffffffffffffffffffffffffffffffffffffffffff1916827bffffffffffffffffffffffffffffffffffffffffffffffffffffffff19161480610d695750610d688261166e565b5b9050919050565b60008073ffffffffffffffffffffffffffffffffffffffff166002600084815260200190815260200160002060009054906101000a900473ffffffffffffffffffffffffffffffffffffffff1673ffffffffffffffffffffffffffffffffffffffff1614159050919050565b600033905090565b816004600083815260200190815260200160002060006101000a81548173ffffffffffffffffffffffffffffffffffffffff021916908373ffffffffffffffffffffffffffffffffffffffff160217905550808273ffffffffffffffffffffffffffffffffffffffff16610e5783610801565b73ffffffffffffffffffffffffffffffffffffffff167f8c5be1e5ebec7d5bd14f71427d1e84f3dd0314c0f7b2291e5b200ac8c7c3b92560405160405180910390a45050565b6000610ea882610d70565b610ee7576040517f08c379a0000000000000000000000000000000000000000000000000000000008152600401610ede90612c25565b60405180910390fd5b6000610ef283610801565b90508073ffffffffffffffffffffffffffffffffffffffff168473ffffffffffffffffffffffffffffffffffffffff161480610f6157508373ffffffffffffffffffffffffffffffffffffffff16610f498461049b565b73ffffffffffffffffffffffffffffffffffffffff16145b80610f725750610f718185610b6a565b5b91505092915050565b8273ffffffffffffffffffffffffffffffffffffffff16610f9b82610801565b73ffffffffffffffffffffffffffffffffffffffff1614610ff1576040517f08c379a0000000000000000000000000000000000000000000000000000000008152600401610fe890612d45565b60405180910390fd5b600073ffffffffffffffffffffffffffffffffffffffff168273ffffffffffffffffffffffffffffffffffffffff161415611061576040517f08c379a000000000000000000000000000000000000000000000000000000000815260040161105890612be5565b60405180910390fd5b61106c838383611750565b611077600082610de4565b6001600360008573ffffffffffffffffffffffffffffffffffffffff1673ffffffffffffffffffffffffffffffffffffffff16815260200190815260200160002060008282546110c79190612f51565b925050819055506001600360008473ffffffffffffffffffffffffffffffffffffffff1673ffffffffffffffffffffffffffffffffffffffff168152602001908152602001600020600082825461111e9190612eca565b92505081905550816002600083815260200190815260200160002060006101000a81548173ffffffffffffffffffffffffffffffffffffffff021916908373ffffffffffffffffffffffffffffffffffffffff160217905550808273ffffffffffffffffffffffffffffffffffffffff168473ffffffffffffffffffffffffffffffffffffffff167fddf252ad1be2c89b69c2b068fc378daa952ba7f163c4a11628f55a4df523b3ef60405160405180910390a4505050565b6000600b60009054906101000a900473ffffffffffffffffffffffffffffffffffffffff16905081600b60006101000a81548173ffffffffffffffffffffffffffffffffffffffff021916908373ffffffffffffffffffffffffffffffffffffffff1602179055508173ffffffffffffffffffffffffffffffffffffffff168173ffffffffffffffffffffffffffffffffffffffff167f8be0079c531659141344cd1fd0a4f28419497f9722a3daafe3b4186f6b6457e060405160405180910390a35050565b8173ffffffffffffffffffffffffffffffffffffffff168373ffffffffffffffffffffffffffffffffffffffff16141561130c576040517f08c379a000000000000000000000000000000000000000000000000000000000815260040161130390612c05565b60405180910390fd5b80600560008573ffffffffffffffffffffffffffffffffffffffff1673ffffffffffffffffffffffffffffffffffffffff16815260200190815260200160002060008473ffffffffffffffffffffffffffffffffffffffff1673ffffffffffffffffffffffffffffffffffffffff16815260200190815260200160002060006101000a81548160ff0219169083151502179055508173ffffffffffffffffffffffffffffffffffffffff168373ffffffffffffffffffffffffffffffffffffffff167f17307eab39ab6107e8899845ad3d59bd9653f200f220920489ca2b5937696c31836040516113fd9190612b28565b60405180910390a3505050565b611415848484610f7b565b61142184848484611760565b611460576040517f08c379a000000000000000000000000000000000000000000000000000000000815260040161145790612b85565b60405180910390fd5b50505050565b606061147182610d70565b6114b0576040517f08c379a00000000000000000000000000000000000000000000000000000000081526004016114a790612ce5565b60405180910390fd5b6000600a600084815260200190815260200160002080546114d09061303b565b80601f01602080910402602001604051908101604052809291908181526020018280546114fc9061303b565b80156115495780601f1061151e57610100808354040283529160200191611549565b820191906000526020600020905b81548152906001019060200180831161152c57829003601f168201915b50505050509050600061155a6118f7565b90506000815114156115705781925050506115b3565b6000825111156115a557808260405160200161158d929190612a9d565b604051602081830303815290604052925050506115b3565b6115ae84611934565b925050505b919050565b600081600001549050919050565b6001816000016000828254019250508190555050565b6115f68282604051806020016040528060008152506119db565b5050565b61160382610d70565b611642576040517f08c379a000000000000000000000000000000000000000000000000000000000815260040161163990612ca5565b60405180910390fd5b80600a600084815260200190815260200160002090805190602001906116699291906122bf565b505050565b60007f80ac58cd000000000000000000000000000000000000000000000000000000007bffffffffffffffffffffffffffffffffffffffffffffffffffffffff1916827bffffffffffffffffffffffffffffffffffffffffffffffffffffffff1916148061173957507f5b5e139f000000000000000000000000000000000000000000000000000000007bffffffffffffffffffffffffffffffffffffffffffffffffffffffff1916827bffffffffffffffffffffffffffffffffffffffffffffffffffffffff1916145b80611749575061174882611a36565b5b9050919050565b61175b838383611aa0565b505050565b60006117818473ffffffffffffffffffffffffffffffffffffffff16611bb4565b156118ea578373ffffffffffffffffffffffffffffffffffffffff1663150b7a026117aa610ddc565b8786866040518563ffffffff1660e01b81526004016117cc9493929190612adc565b602060405180830381600087803b1580156117e657600080fd5b505af192505050801561181757506040513d601f19601f8201168201806040525081019061181491906126bf565b60015b61189a573d8060008114611847576040519150601f19603f3d011682016040523d82523d6000602084013e61184c565b606091505b50600081511415611892576040517f08c379a000000000000000000000000000000000000000000000000000000000815260040161188990612b85565b60405180910390fd5b805181602001fd5b63150b7a0260e01b7bffffffffffffffffffffffffffffffffffffffffffffffffffffffff1916817bffffffffffffffffffffffffffffffffffffffffffffffffffffffff1916149150506118ef565b600190505b949350505050565b60606040518060400160405280600b81526020017f68747470733a2f2f4d4144000000000000000000000000000000000000000000815250905090565b606061193f82610d70565b61197e576040517f08c379a000000000000000000000000000000000000000000000000000000000815260040161197590612d65565b60405180910390fd5b60006119886118f7565b905060008151116119a857604051806020016040528060008152506119d3565b806119b284611bc7565b6040516020016119c3929190612a9d565b6040516020818303038152906040525b915050919050565b6119e58383611d74565b6119f26000848484611760565b611a31576040517f08c379a0000000000000000000000000000000000000000000000000000000008152600401611a2890612b85565b60405180910390fd5b505050565b60007f01ffc9a7000000000000000000000000000000000000000000000000000000007bffffffffffffffffffffffffffffffffffffffffffffffffffffffff1916827bffffffffffffffffffffffffffffffffffffffffffffffffffffffff1916149050919050565b611aab838383611f42565b600073ffffffffffffffffffffffffffffffffffffffff168373ffffffffffffffffffffffffffffffffffffffff161415611aee57611ae981611f47565b611b2d565b8173ffffffffffffffffffffffffffffffffffffffff168373ffffffffffffffffffffffffffffffffffffffff1614611b2c57611b2b8382611f90565b5b5b600073ffffffffffffffffffffffffffffffffffffffff168273ffffffffffffffffffffffffffffffffffffffff161415611b7057611b6b816120fd565b611baf565b8273ffffffffffffffffffffffffffffffffffffffff168273ffffffffffffffffffffffffffffffffffffffff1614611bae57611bad8282612240565b5b5b505050565b600080823b905060008111915050919050565b60606000821415611c0f576040518060400160405280600181526020017f30000000000000000000000000000000000000000000000000000000000000008152509050611d6f565b600082905060005b60008214611c41578080611c2a9061309e565b915050600a82611c3a9190612f20565b9150611c17565b60008167ffffffffffffffff811115611c83577f4e487b7100000000000000000000000000000000000000000000000000000000600052604160045260246000fd5b6040519080825280601f01601f191660200182016040528015611cb55781602001600182028036833780820191505090505b5090505b60008514611d6857600182611cce9190612f51565b9150600a85611cdd91906130e7565b6030611ce99190612eca565b60f81b818381518110611d25577f4e487b7100000000000000000000000000000000000000000000000000000000600052603260045260246000fd5b60200101907effffffffffffffffffffffffffffffffffffffffffffffffffffffffffffff1916908160001a905350600a85611d619190612f20565b9450611cb9565b8093505050505b919050565b600073ffffffffffffffffffffffffffffffffffffffff168273ffffffffffffffffffffffffffffffffffffffff161415611de4576040517f08c379a0000000000000000000000000000000000000000000000000000000008152600401611ddb90612cc5565b60405180910390fd5b611ded81610d70565b15611e2d576040517f08c379a0000000000000000000000000000000000000000000000000000000008152600401611e2490612bc5565b60405180910390fd5b611e3960008383611750565b6001600360008473ffffffffffffffffffffffffffffffffffffffff1673ffffffffffffffffffffffffffffffffffffffff1681526020019081526020016000206000828254611e899190612eca565b92505081905550816002600083815260200190815260200160002060006101000a81548173ffffffffffffffffffffffffffffffffffffffff021916908373ffffffffffffffffffffffffffffffffffffffff160217905550808273ffffffffffffffffffffffffffffffffffffffff16600073ffffffffffffffffffffffffffffffffffffffff167fddf252ad1be2c89b69c2b068fc378daa952ba7f163c4a11628f55a4df523b3ef60405160405180910390a45050565b505050565b6008805490506009600083815260200190815260200160002081905550600881908060018154018082558091505060019003906000526020600020016000909190919091505550565b60006001611f9d846108b3565b611fa79190612f51565b905060006007600084815260200190815260200160002054905081811461208c576000600660008673ffffffffffffffffffffffffffffffffffffffff1673ffffffffffffffffffffffffffffffffffffffff168152602001908152602001600020600084815260200190815260200160002054905080600660008773ffffffffffffffffffffffffffffffffffffffff1673ffffffffffffffffffffffffffffffffffffffff168152602001908152602001600020600084815260200190815260200160002081905550816007600083815260200190815260200160002081905550505b6007600084815260200190815260200160002060009055600660008573ffffffffffffffffffffffffffffffffffffffff1673ffffffffffffffffffffffffffffffffffffffff16815260200190815260200160002060008381526020019081526020016000206000905550505050565b600060016008805490506121119190612f51565b9050600060096000848152602001908152602001600020549050600060088381548110612167577f4e487b7100000000000000000000000000000000000000000000000000000000600052603260045260246000fd5b9060005260206000200154905080600883815481106121af577f4e487b7100000000000000000000000000000000000000000000000000000000600052603260045260246000fd5b906000526020600020018190555081600960008381526020019081526020016000208190555060096000858152602001908152602001600020600090556008805480612224577f4e487b7100000000000000000000000000000000000000000000000000000000600052603160045260246000fd5b6001900381819060005260206000200160009055905550505050565b600061224b836108b3565b905081600660008573ffffffffffffffffffffffffffffffffffffffff1673ffffffffffffffffffffffffffffffffffffffff168152602001908152602001600020600083815260200190815260200160002081905550806007600084815260200190815260200160002081905550505050565b8280546122cb9061303b565b90600052602060002090601f0160209004810192826122ed5760008555612334565b82601f1061230657805160ff1916838001178555612334565b82800160010185558215612334579182015b82811115612333578251825591602001919060010190612318565b5b5090506123419190612345565b5090565b5b8082111561235e576000816000905550600101612346565b5090565b600061237561237084612e25565b612e00565b90508281526020810184848401111561238d57600080fd5b612398848285612ff9565b509392505050565b60006123b36123ae84612e56565b612e00565b9050828152602081018484840111156123cb57600080fd5b6123d6848285612ff9565b509392505050565b6000813590506123ed81613779565b92915050565b60008135905061240281613790565b92915050565b600081359050612417816137a7565b92915050565b60008151905061242c816137a7565b92915050565b600082601f83011261244357600080fd5b8135612453848260208601612362565b91505092915050565b600082601f83011261246d57600080fd5b813561247d8482602086016123a0565b91505092915050565b600081359050612495816137be565b92915050565b6000602082840312156124ad57600080fd5b60006124bb848285016123de565b91505092915050565b600080604083850312156124d757600080fd5b60006124e5858286016123de565b92505060206124f6858286016123de565b9150509250929050565b60008060006060848603121561251557600080fd5b6000612523868287016123de565b9350506020612534868287016123de565b925050604061254586828701612486565b9150509250925092565b6000806000806080858703121561256557600080fd5b6000612573878288016123de565b9450506020612584878288016123de565b935050604061259587828801612486565b925050606085013567ffffffffffffffff8111156125b257600080fd5b6125be87828801612432565b91505092959194509250565b600080604083850312156125dd57600080fd5b60006125eb858286016123de565b92505060206125fc858286016123f3565b9150509250929050565b6000806040838503121561261957600080fd5b6000612627858286016123de565b925050602083013567ffffffffffffffff81111561264457600080fd5b6126508582860161245c565b9150509250929050565b6000806040838503121561266d57600080fd5b600061267b858286016123de565b925050602061268c85828601612486565b9150509250929050565b6000602082840312156126a857600080fd5b60006126b684828501612408565b91505092915050565b6000602082840312156126d157600080fd5b60006126df8482850161241d565b91505092915050565b6000602082840312156126fa57600080fd5b600061270884828501612486565b91505092915050565b61271a81612f85565b82525050565b61272981612f97565b82525050565b600061273a82612e87565b6127448185612e9d565b9350612754818560208601613008565b61275d816131d4565b840191505092915050565b600061277382612e92565b61277d8185612eae565b935061278d818560208601613008565b612796816131d4565b840191505092915050565b60006127ac82612e92565b6127b68185612ebf565b93506127c6818560208601613008565b80840191505092915050565b60006127df602b83612eae565b91506127ea826131e5565b604082019050919050565b6000612802603283612eae565b915061280d82613234565b604082019050919050565b6000612825602683612eae565b915061283082613283565b604082019050919050565b6000612848601c83612eae565b9150612853826132d2565b602082019050919050565b600061286b602483612eae565b9150612876826132fb565b604082019050919050565b600061288e601983612eae565b91506128998261334a565b602082019050919050565b60006128b1602c83612eae565b91506128bc82613373565b604082019050919050565b60006128d4603883612eae565b91506128df826133c2565b604082019050919050565b60006128f7602a83612eae565b915061290282613411565b604082019050919050565b600061291a602983612eae565b915061292582613460565b604082019050919050565b600061293d602e83612eae565b9150612948826134af565b604082019050919050565b6000612960602083612eae565b915061296b826134fe565b602082019050919050565b6000612983603183612eae565b915061298e82613527565b604082019050919050565b60006129a6602c83612eae565b91506129b182613576565b604082019050919050565b60006129c9602083612eae565b91506129d4826135c5565b602082019050919050565b60006129ec602983612eae565b91506129f7826135ee565b604082019050919050565b6000612a0f602f83612eae565b9150612a1a8261363d565b604082019050919050565b6000612a32602183612eae565b9150612a3d8261368c565b604082019050919050565b6000612a55603183612eae565b9150612a60826136db565b604082019050919050565b6000612a78602c83612eae565b9150612a838261372a565b604082019050919050565b612a9781612fef565b82525050565b6000612aa982856127a1565b9150612ab582846127a1565b91508190509392505050565b6000602082019050612ad66000830184612711565b92915050565b6000608082019050612af16000830187612711565b612afe6020830186612711565b612b0b6040830185612a8e565b8181036060830152612b1d818461272f565b905095945050505050565b6000602082019050612b3d6000830184612720565b92915050565b60006020820190508181036000830152612b5d8184612768565b905092915050565b60006020820190508181036000830152612b7e816127d2565b9050919050565b60006020820190508181036000830152612b9e816127f5565b9050919050565b60006020820190508181036000830152612bbe81612818565b9050919050565b60006020820190508181036000830152612bde8161283b565b9050919050565b60006020820190508181036000830152612bfe8161285e565b9050919050565b60006020820190508181036000830152612c1e81612881565b9050919050565b60006020820190508181036000830152612c3e816128a4565b9050919050565b60006020820190508181036000830152612c5e816128c7565b9050919050565b60006020820190508181036000830152612c7e816128ea565b9050919050565b60006020820190508181036000830152612c9e8161290d565b9050919050565b60006020820190508181036000830152612cbe81612930565b9050919050565b60006020820190508181036000830152612cde81612953565b9050919050565b60006020820190508181036000830152612cfe81612976565b9050919050565b60006020820190508181036000830152612d1e81612999565b9050919050565b60006020820190508181036000830152612d3e816129bc565b9050919050565b60006020820190508181036000830152612d5e816129df565b9050919050565b60006020820190508181036000830152612d7e81612a02565b9050919050565b60006020820190508181036000830152612d9e81612a25565b9050919050565b60006020820190508181036000830152612dbe81612a48565b9050919050565b60006020820190508181036000830152612dde81612a6b565b9050919050565b6000602082019050612dfa6000830184612a8e565b92915050565b6000612e0a612e1b565b9050612e16828261306d565b919050565b6000604051905090565b600067ffffffffffffffff821115612e4057612e3f6131a5565b5b612e49826131d4565b9050602081019050919050565b600067ffffffffffffffff821115612e7157612e706131a5565b5b612e7a826131d4565b9050602081019050919050565b600081519050919050565b600081519050919050565b600082825260208201905092915050565b600082825260208201905092915050565b600081905092915050565b6000612ed582612fef565b9150612ee083612fef565b9250827fffffffffffffffffffffffffffffffffffffffffffffffffffffffffffffffff03821115612f1557612f14613118565b5b828201905092915050565b6000612f2b82612fef565b9150612f3683612fef565b925082612f4657612f45613147565b5b828204905092915050565b6000612f5c82612fef565b9150612f6783612fef565b925082821015612f7a57612f79613118565b5b828203905092915050565b6000612f9082612fcf565b9050919050565b60008115159050919050565b60007fffffffff0000000000000000000000000000000000000000000000000000000082169050919050565b600073ffffffffffffffffffffffffffffffffffffffff82169050919050565b6000819050919050565b82818337600083830152505050565b60005b8381101561302657808201518184015260208101905061300b565b83811115613035576000848401525b50505050565b6000600282049050600182168061305357607f821691505b6020821081141561306757613066613176565b5b50919050565b613076826131d4565b810181811067ffffffffffffffff82111715613095576130946131a5565b5b80604052505050565b60006130a982612fef565b91507fffffffffffffffffffffffffffffffffffffffffffffffffffffffffffffffff8214156130dc576130db613118565b5b600182019050919050565b60006130f282612fef565b91506130fd83612fef565b92508261310d5761310c613147565b5b828206905092915050565b7f4e487b7100000000000000000000000000000000000000000000000000000000600052601160045260246000fd5b7f4e487b7100000000000000000000000000000000000000000000000000000000600052601260045260246000fd5b7f4e487b7100000000000000000000000000000000000000000000000000000000600052602260045260246000fd5b7f4e487b7100000000000000000000000000000000000000000000000000000000600052604160045260246000fd5b6000601f19601f8301169050919050565b7f455243373231456e756d657261626c653a206f776e657220696e646578206f7560008201527f74206f6620626f756e6473000000000000000000000000000000000000000000602082015250565b7f4552433732313a207472616e7366657220746f206e6f6e20455243373231526560008201527f63656976657220696d706c656d656e7465720000000000000000000000000000602082015250565b7f4f776e61626c653a206e6577206f776e657220697320746865207a65726f206160008201527f6464726573730000000000000000000000000000000000000000000000000000602082015250565b7f4552433732313a20746f6b656e20616c7265616479206d696e74656400000000600082015250565b7f4552433732313a207472616e7366657220746f20746865207a65726f2061646460008201527f7265737300000000000000000000000000000000000000000000000000000000602082015250565b7f4552433732313a20617070726f766520746f2063616c6c657200000000000000600082015250565b7f4552433732313a206f70657261746f7220717565727920666f72206e6f6e657860008201527f697374656e7420746f6b656e0000000000000000000000000000000000000000602082015250565b7f4552433732313a20617070726f76652063616c6c6572206973206e6f74206f7760008201527f6e6572206e6f7220617070726f76656420666f7220616c6c0000000000000000602082015250565b7f4552433732313a2062616c616e636520717565727920666f7220746865207a6560008201527f726f206164647265737300000000000000000000000000000000000000000000602082015250565b7f4552433732313a206f776e657220717565727920666f72206e6f6e657869737460008201527f656e7420746f6b656e0000000000000000000000000000000000000000000000602082015250565b7f45524337323155524953746f726167653a2055524920736574206f66206e6f6e60008201527f6578697374656e7420746f6b656e000000000000000000000000000000000000602082015250565b7f4552433732313a206d696e7420746f20746865207a65726f2061646472657373600082015250565b7f45524337323155524953746f726167653a2055524920717565727920666f722060008201527f6e6f6e6578697374656e7420746f6b656e000000000000000000000000000000602082015250565b7f4552433732313a20617070726f76656420717565727920666f72206e6f6e657860008201527f697374656e7420746f6b656e0000000000000000000000000000000000000000602082015250565b7f4f776e61626c653a2063616c6c6572206973206e6f7420746865206f776e6572600082015250565b7f4552433732313a207472616e73666572206f6620746f6b656e2074686174206960008201527f73206e6f74206f776e0000000000000000000000000000000000000000000000602082015250565b7f4552433732314d657461646174613a2055524920717565727920666f72206e6f60008201527f6e6578697374656e7420746f6b656e0000000000000000000000000000000000602082015250565b7f4552433732313a20617070726f76616c20746f2063757272656e74206f776e6560008201527f7200000000000000000000000000000000000000000000000000000000000000602082015250565b7f4552433732313a207472616e736665722063616c6c6572206973206e6f74206f60008201527f776e6572206e6f7220617070726f766564000000000000000000000000000000602082015250565b7f455243373231456e756d657261626c653a20676c6f62616c20696e646578206f60008201527f7574206f6620626f756e64730000000000000000000000000000000000000000602082015250565b61378281612f85565b811461378d57600080fd5b50565b61379981612f97565b81146137a457600080fd5b50565b6137b081612fa3565b81146137bb57600080fd5b50565b6137c781612fef565b81146137d257600080fd5b5056fea264697066735822122076fbef53dd20e18a1d6a974f7ef19051f3870d9512db6f40df7c6de21cad129664736f6c63430008040033",
  "linkReferences": {},
  "deployedLinkReferences": {}
}