{
  "_format": "hh-sol-artifact-1",
  "contractName": "MyNFT",
  "sourceName": "contracts/MyNFT.sol",
  "abi": [
    {
      "inputs": [],
      "stateMutability": "nonpayable",
      "type": "constructor"
    },
    {
      "anonymous": false,
      "inputs": [
        {
          "indexed": true,
          "internalType": "address",
          "name": "owner",
          "type": "address"
        },
        {
          "indexed": true,
          "internalType": "address",
          "name": "approved",
          "type": "address"
        },
        {
          "indexed": true,
          "internalType": "uint256",
          "name": "tokenId",
          "type": "uint256"
        }
      ],
      "name": "Approval",
      "type": "event"
    },
    {
      "anonymous": false,
      "inputs": [
        {
          "indexed": true,
          "internalType": "address",
          "name": "owner",
          "type": "address"
        },
        {
          "indexed": true,
          "internalType": "address",
          "name": "operator",
          "type": "address"
        },
        {
          "indexed": false,
          "internalType": "bool",
          "name": "approved",
          "type": "bool"
        }
      ],
      "name": "ApprovalForAll",
      "type": "event"
    },
    {
      "anonymous": false,
      "inputs": [
        {
          "indexed": true,
          "internalType": "address",
          "name": "previousOwner",
          "type": "address"
        },
        {
          "indexed": true,
          "internalType": "address",
          "name": "newOwner",
          "type": "address"
        }
      ],
      "name": "OwnershipTransferred",
      "type": "event"
    },
    {
      "anonymous": false,
      "inputs": [
        {
          "indexed": true,
          "internalType": "address",
          "name": "from",
          "type": "address"
        },
        {
          "indexed": true,
          "internalType": "address",
          "name": "to",
          "type": "address"
        },
        {
          "indexed": true,
          "internalType": "uint256",
          "name": "tokenId",
          "type": "uint256"
        }
      ],
      "name": "Transfer",
      "type": "event"
    },
    {
      "inputs": [
        {
          "internalType": "address",
          "name": "",
          "type": "address"
        },
        {
          "internalType": "uint256",
          "name": "",
          "type": "uint256"
        }
      ],
      "name": "_tokenOwners",
      "outputs": [
        {
          "internalType": "uint256",
          "name": "",
          "type": "uint256"
        }
      ],
      "stateMutability": "view",
      "type": "function"
    },
    {
      "inputs": [
        {
          "internalType": "uint256",
          "name": "",
          "type": "uint256"
        }
      ],
      "name": "_tokenURIs",
      "outputs": [
        {
          "internalType": "string",
          "name": "",
          "type": "string"
        }
      ],
      "stateMutability": "view",
      "type": "function"
    },
    {
      "inputs": [
        {
          "internalType": "address",
          "name": "to",
          "type": "address"
        },
        {
          "internalType": "uint256",
          "name": "tokenId",
          "type": "uint256"
        }
      ],
      "name": "approve",
      "outputs": [],
      "stateMutability": "nonpayable",
      "type": "function"
    },
    {
      "inputs": [
        {
          "internalType": "address",
          "name": "owner",
          "type": "address"
        }
      ],
      "name": "balanceOf",
      "outputs": [
        {
          "internalType": "uint256",
          "name": "",
          "type": "uint256"
        }
      ],
      "stateMutability": "view",
      "type": "function"
    },
    {
      "inputs": [
        {
          "internalType": "uint256",
          "name": "tokenId",
          "type": "uint256"
        }
      ],
      "name": "getApproved",
      "outputs": [
        {
          "internalType": "address",
          "name": "",
          "type": "address"
        }
      ],
      "stateMutability": "view",
      "type": "function"
    },
    {
      "inputs": [
        {
          "internalType": "address",
          "name": "owner",
          "type": "address"
        },
        {
          "internalType": "address",
          "name": "operator",
          "type": "address"
        }
      ],
      "name": "isApprovedForAll",
      "outputs": [
        {
          "internalType": "bool",
          "name": "",
          "type": "bool"
        }
      ],
      "stateMutability": "view",
      "type": "function"
    },
    {
      "inputs": [
        {
          "internalType": "string",
          "name": "tokenURI",
          "type": "string"
        },
        {
          "internalType": "uint256",
          "name": "_tokenId",
          "type": "uint256"
        }
      ],
      "name": "mintMynft",
      "outputs": [],
      "stateMutability": "nonpayable",
      "type": "function"
    },
    {
      "inputs": [],
      "name": "name",
      "outputs": [
        {
          "internalType": "string",
          "name": "",
          "type": "string"
        }
      ],
      "stateMutability": "view",
      "type": "function"
    },
    {
      "inputs": [],
      "name": "owner",
      "outputs": [
        {
          "internalType": "address",
          "name": "",
          "type": "address"
        }
      ],
      "stateMutability": "view",
      "type": "function"
    },
    {
      "inputs": [
        {
          "internalType": "uint256",
          "name": "tokenId",
          "type": "uint256"
        }
      ],
      "name": "ownerOf",
      "outputs": [
        {
          "internalType": "address",
          "name": "",
          "type": "address"
        }
      ],
      "stateMutability": "view",
      "type": "function"
    },
    {
      "inputs": [
        {
          "internalType": "uint256",
          "name": "",
          "type": "uint256"
        },
        {
          "internalType": "uint256",
          "name": "",
          "type": "uint256"
        }
      ],
      "name": "participants",
      "outputs": [
        {
          "internalType": "address",
          "name": "",
          "type": "address"
        }
      ],
      "stateMutability": "view",
      "type": "function"
    },
    {
      "inputs": [
        {
          "internalType": "uint256",
          "name": "",
          "type": "uint256"
        },
        {
          "internalType": "uint256",
          "name": "",
          "type": "uint256"
        }
      ],
      "name": "participateTokens",
      "outputs": [
        {
          "internalType": "uint256",
          "name": "",
          "type": "uint256"
        }
      ],
      "stateMutability": "view",
      "type": "function"
    },
    {
      "inputs": [
        {
          "internalType": "uint256",
          "name": "_tokenID",
          "type": "uint256"
        }
      ],
      "name": "randParticipants",
      "outputs": [
        {
          "internalType": "uint256",
          "name": "",
          "type": "uint256"
        }
      ],
      "stateMutability": "nonpayable",
      "type": "function"
    },
    {
      "inputs": [
        {
          "internalType": "uint256",
          "name": "tokenID",
          "type": "uint256"
        },
        {
          "internalType": "address",
          "name": "winner",
          "type": "address"
        }
      ],
      "name": "randomDeployNFT",
      "outputs": [],
      "stateMutability": "nonpayable",
      "type": "function"
    },
    {
      "inputs": [
        {
          "internalType": "uint256",
          "name": "",
          "type": "uint256"
        },
        {
          "internalType": "uint256",
          "name": "",
          "type": "uint256"
        }
      ],
      "name": "randomParticipants",
      "outputs": [
        {
          "internalType": "address",
          "name": "",
          "type": "address"
        }
      ],
      "stateMutability": "view",
      "type": "function"
    },
    {
      "inputs": [],
      "name": "renounceOwnership",
      "outputs": [],
      "stateMutability": "nonpayable",
      "type": "function"
    },
    {
      "inputs": [
        {
          "internalType": "address",
          "name": "from",
          "type": "address"
        },
        {
          "internalType": "address",
          "name": "to",
          "type": "address"
        },
        {
          "internalType": "uint256",
          "name": "tokenId",
          "type": "uint256"
        }
      ],
      "name": "safeTransferFrom",
      "outputs": [],
      "stateMutability": "nonpayable",
      "type": "function"
    },
    {
      "inputs": [
        {
          "internalType": "address",
          "name": "from",
          "type": "address"
        },
        {
          "internalType": "address",
          "name": "to",
          "type": "address"
        },
        {
          "internalType": "uint256",
          "name": "tokenId",
          "type": "uint256"
        },
        {
          "internalType": "bytes",
          "name": "_data",
          "type": "bytes"
        }
      ],
      "name": "safeTransferFrom",
      "outputs": [],
      "stateMutability": "nonpayable",
      "type": "function"
    },
    {
      "inputs": [
        {
          "internalType": "address",
          "name": "operator",
          "type": "address"
        },
        {
          "internalType": "bool",
          "name": "approved",
          "type": "bool"
        }
      ],
      "name": "setApprovalForAll",
      "outputs": [],
      "stateMutability": "nonpayable",
      "type": "function"
    },
    {
      "inputs": [
        {
          "internalType": "address",
          "name": "account",
          "type": "address"
        }
      ],
      "name": "showNFTList",
      "outputs": [],
      "stateMutability": "nonpayable",
      "type": "function"
    },
    {
      "inputs": [
        {
          "internalType": "bytes4",
          "name": "interfaceId",
          "type": "bytes4"
        }
      ],
      "name": "supportsInterface",
      "outputs": [
        {
          "internalType": "bool",
          "name": "",
          "type": "bool"
        }
      ],
      "stateMutability": "view",
      "type": "function"
    },
    {
      "inputs": [],
      "name": "symbol",
      "outputs": [
        {
          "internalType": "string",
          "name": "",
          "type": "string"
        }
      ],
      "stateMutability": "view",
      "type": "function"
    },
    {
      "inputs": [
        {
          "internalType": "uint256",
          "name": "index",
          "type": "uint256"
        }
      ],
      "name": "tokenByIndex",
      "outputs": [
        {
          "internalType": "uint256",
          "name": "",
          "type": "uint256"
        }
      ],
      "stateMutability": "view",
      "type": "function"
    },
    {
      "inputs": [],
      "name": "tokenID",
      "outputs": [
        {
          "internalType": "uint256",
          "name": "",
          "type": "uint256"
        }
      ],
      "stateMutability": "view",
      "type": "function"
    },
    {
      "inputs": [
        {
          "internalType": "address",
          "name": "owner",
          "type": "address"
        },
        {
          "internalType": "uint256",
          "name": "index",
          "type": "uint256"
        }
      ],
      "name": "tokenOfOwnerByIndex",
      "outputs": [
        {
          "internalType": "uint256",
          "name": "",
          "type": "uint256"
        }
      ],
      "stateMutability": "view",
      "type": "function"
    },
    {
      "inputs": [
        {
          "internalType": "uint256",
          "name": "tokenId",
          "type": "uint256"
        }
      ],
      "name": "tokenURI",
      "outputs": [
        {
          "internalType": "string",
          "name": "",
          "type": "string"
        }
      ],
      "stateMutability": "view",
      "type": "function"
    },
    {
      "inputs": [],
      "name": "totalSupply",
      "outputs": [
        {
          "internalType": "uint256",
          "name": "",
          "type": "uint256"
        }
      ],
      "stateMutability": "view",
      "type": "function"
    },
    {
      "inputs": [
        {
          "internalType": "address",
          "name": "_to",
          "type": "address"
        },
        {
          "internalType": "uint256",
          "name": "_id",
          "type": "uint256"
        }
      ],
      "name": "transfer",
      "outputs": [],
      "stateMutability": "nonpayable",
      "type": "function"
    },
    {
      "inputs": [
        {
          "internalType": "address",
          "name": "from",
          "type": "address"
        },
        {
          "internalType": "address",
          "name": "to",
          "type": "address"
        },
        {
          "internalType": "uint256",
          "name": "tokenId",
          "type": "uint256"
        }
      ],
      "name": "transferFrom",
      "outputs": [],
      "stateMutability": "nonpayable",
      "type": "function"
    },
    {
      "inputs": [
        {
          "internalType": "address",
          "name": "newOwner",
          "type": "address"
        }
      ],
      "name": "transferOwnership",
      "outputs": [],
      "stateMutability": "nonpayable",
      "type": "function"
    }
  ],
  "bytecode": "0x60806040523480156200001157600080fd5b506040518060400160405280600481526020017f74657374000000000000000000000000000000000000000000000000000000008152506040518060400160405280600481526020017f74657374000000000000000000000000000000000000000000000000000000008152506200009e62000092620000e060201b60201c565b620000e860201b60201c565b8160019080519060200190620000b6929190620001ac565b508060029080519060200190620000cf929190620001ac565b5050506000600b81905550620002c1565b600033905090565b60008060009054906101000a900473ffffffffffffffffffffffffffffffffffffffff169050816000806101000a81548173ffffffffffffffffffffffffffffffffffffffff021916908373ffffffffffffffffffffffffffffffffffffffff1602179055508173ffffffffffffffffffffffffffffffffffffffff168173ffffffffffffffffffffffffffffffffffffffff167f8be0079c531659141344cd1fd0a4f28419497f9722a3daafe3b4186f6b6457e060405160405180910390a35050565b828054620001ba906200025c565b90600052602060002090601f016020900481019282620001de57600085556200022a565b82601f10620001f957805160ff19168380011785556200022a565b828001600101855582156200022a579182015b82811115620002295782518255916020019190600101906200020c565b5b5090506200023991906200023d565b5090565b5b80821115620002585760008160009055506001016200023e565b5090565b600060028204905060018216806200027557607f821691505b602082108114156200028c576200028b62000292565b5b50919050565b7f4e487b7100000000000000000000000000000000000000000000000000000000600052602260045260246000fd5b6140d580620002d16000396000f3fe608060405234801561001057600080fd5b50600436106101da5760003560e01c806381fb1fb411610104578063a9059cbb116100a2578063d31acfcb11610071578063d31acfcb1461059f578063de9ec391146105bb578063e985e9c5146105eb578063f2fde38b1461061b576101da565b8063a9059cbb14610507578063b8769ac914610523578063b88d4fde14610553578063c87b56dd1461056f576101da565b80638f02d5df116100de5780638f02d5df1461049357806395d89b41146104af578063a22cb465146104cd578063a5c42ef1146104e9576101da565b806381fb1fb4146104295780638cb0071e146104595780638da5cb5b14610475576101da565b806323b872dd1161017c5780636352211e1161014b5780636352211e1461038f57806363fb2294146103bf57806370a08231146103ef578063715018a61461041f576101da565b806323b872dd146102f75780632f745c591461031357806342842e0e146103435780634f6ccce71461035f576101da565b8063081812fc116101b8578063081812fc1461025d578063095ea7b31461028d5780630bb78ec1146102a957806318160ddd146102d9576101da565b806301ffc9a7146101df57806306fdde031461020f57806307bde4f91461022d575b600080fd5b6101f960048036038101906101f49190613087565b610637565b60405161020691906139bd565b60405180910390f35b6102176106b1565b60405161022491906139d8565b60405180910390f35b61024760048036038101906102429190613192565b610743565b6040516102549190613956565b60405180910390f35b6102776004803603810190610272919061312d565b610791565b6040516102849190613956565b60405180910390f35b6102a760048036038101906102a2919061304b565b610816565b005b6102c360048036038101906102be919061312d565b61092e565b6040516102d091906139d8565b60405180910390f35b6102e16109ce565b6040516102ee9190613c6a565b60405180910390f35b610311600480360381019061030c9190612f45565b6109db565b005b61032d6004803603810190610328919061304b565b610a3b565b60405161033a9190613c6a565b60405180910390f35b61035d60048036038101906103589190612f45565b610ae0565b005b6103796004803603810190610374919061312d565b610b00565b6040516103869190613c6a565b60405180910390f35b6103a960048036038101906103a4919061312d565b610b97565b6040516103b69190613956565b60405180910390f35b6103d960048036038101906103d4919061304b565b610c49565b6040516103e69190613c6a565b60405180910390f35b61040960048036038101906104049190612ee0565b610c7a565b6040516104169190613c6a565b60405180910390f35b610427610d32565b005b610443600480360381019061043e9190613192565b610dba565b6040516104509190613956565b60405180910390f35b610473600480360381019061046e91906130d9565b610e08565b005b61047d610f79565b60405161048a9190613956565b60405180910390f35b6104ad60048036038101906104a89190612ee0565b610fa2565b005b6104b76110b7565b6040516104c491906139d8565b60405180910390f35b6104e760048036038101906104e2919061300f565b611149565b005b6104f161115f565b6040516104fe9190613c6a565b60405180910390f35b610521600480360381019061051c919061304b565b611165565b005b61053d6004803603810190610538919061312d565b611174565b60405161054a9190613c6a565b60405180910390f35b61056d60048036038101906105689190612f94565b611524565b005b6105896004803603810190610584919061312d565b611586565b60405161059691906139d8565b60405180910390f35b6105b960048036038101906105b49190613156565b61162d565b005b6105d560048036038101906105d09190613192565b611743565b6040516105e29190613c6a565b60405180910390f35b61060560048036038101906106009190612f09565b611774565b60405161061291906139bd565b60405180910390f35b61063560048036038101906106309190612ee0565b611808565b005b60007f780e9d63000000000000000000000000000000000000000000000000000000007bffffffffffffffffffffffffffffffffffffffffffffffffffffffff1916827bffffffffffffffffffffffffffffffffffffffffffffffffffffffff191614806106aa57506106a982611900565b5b9050919050565b6060600180546106c090613eca565b80601f01602080910402602001604051908101604052809291908181526020018280546106ec90613eca565b80156107395780601f1061070e57610100808354040283529160200191610739565b820191906000526020600020905b81548152906001019060200180831161071c57829003601f168201915b5050505050905090565b6010602052816000526040600020818154811061075f57600080fd5b906000526020600020016000915091509054906101000a900473ffffffffffffffffffffffffffffffffffffffff1681565b600061079c826119e2565b6107db576040517f08c379a00000000000000000000000000000000000000000000000000000000081526004016107d290613b8a565b60405180910390fd5b6005600083815260200190815260200160002060009054906101000a900473ffffffffffffffffffffffffffffffffffffffff169050919050565b600061082182610b97565b90508073ffffffffffffffffffffffffffffffffffffffff168373ffffffffffffffffffffffffffffffffffffffff161415610892576040517f08c379a000000000000000000000000000000000000000000000000000000000815260040161088990613c0a565b60405180910390fd5b8073ffffffffffffffffffffffffffffffffffffffff166108b1611a4e565b73ffffffffffffffffffffffffffffffffffffffff1614806108e057506108df816108da611a4e565b611774565b5b61091f576040517f08c379a000000000000000000000000000000000000000000000000000000000815260040161091690613b0a565b60405180910390fd5b6109298383611a56565b505050565b600c602052806000526040600020600091509050805461094d90613eca565b80601f016020809104026020016040519081016040528092919081815260200182805461097990613eca565b80156109c65780601f1061099b576101008083540402835291602001916109c6565b820191906000526020600020905b8154815290600101906020018083116109a957829003601f168201915b505050505081565b6000600980549050905090565b6109ec6109e6611a4e565b82611b0f565b610a2b576040517f08c379a0000000000000000000000000000000000000000000000000000000008152600401610a2290613c2a565b60405180910390fd5b610a36838383611bed565b505050565b6000610a4683610c7a565b8210610a87576040517f08c379a0000000000000000000000000000000000000000000000000000000008152600401610a7e90613a2a565b60405180910390fd5b600760008473ffffffffffffffffffffffffffffffffffffffff1673ffffffffffffffffffffffffffffffffffffffff168152602001908152602001600020600083815260200190815260200160002054905092915050565b610afb83838360405180602001604052806000815250611524565b505050565b6000610b0a6109ce565b8210610b4b576040517f08c379a0000000000000000000000000000000000000000000000000000000008152600401610b4290613c4a565b60405180910390fd5b60098281548110610b85577f4e487b7100000000000000000000000000000000000000000000000000000000600052603260045260246000fd5b90600052602060002001549050919050565b6000806003600084815260200190815260200160002060009054906101000a900473ffffffffffffffffffffffffffffffffffffffff169050600073ffffffffffffffffffffffffffffffffffffffff168173ffffffffffffffffffffffffffffffffffffffff161415610c40576040517f08c379a0000000000000000000000000000000000000000000000000000000008152600401610c3790613b4a565b60405180910390fd5b80915050919050565b600d6020528160005260406000208181548110610c6557600080fd5b90600052602060002001600091509150505481565b60008073ffffffffffffffffffffffffffffffffffffffff168273ffffffffffffffffffffffffffffffffffffffff161415610ceb576040517f08c379a0000000000000000000000000000000000000000000000000000000008152600401610ce290613b2a565b60405180910390fd5b600460008373ffffffffffffffffffffffffffffffffffffffff1673ffffffffffffffffffffffffffffffffffffffff168152602001908152602001600020549050919050565b610d3a611a4e565b73ffffffffffffffffffffffffffffffffffffffff16610d58610f79565b73ffffffffffffffffffffffffffffffffffffffff1614610dae576040517f08c379a0000000000000000000000000000000000000000000000000000000008152600401610da590613baa565b60405180910390fd5b610db86000611e49565b565b600e6020528160005260406000208181548110610dd657600080fd5b906000526020600020016000915091509054906101000a900473ffffffffffffffffffffffffffffffffffffffff1681565b610e1b610e13610f79565b600b54611f0d565b81600c6000600b5481526020019081526020016000209080519060200190610e44929190612d04565b50600d60003373ffffffffffffffffffffffffffffffffffffffff1673ffffffffffffffffffffffffffffffffffffffff168152602001908152602001600020600b549080600181540180825580915050600190039060005260206000200160009091909190915055600e6000828152602001908152602001600020339080600181540180825580915050600190039060005260206000200160009091909190916101000a81548173ffffffffffffffffffffffffffffffffffffffff021916908373ffffffffffffffffffffffffffffffffffffffff160217905550600f6000828152602001908152602001600020600b549080600181540180825580915050600190039060005260206000200160009091909190915055600b6000815480929190610f7090613efc565b91905055505050565b60008060009054906101000a900473ffffffffffffffffffffffffffffffffffffffff16905090565b6000610fad82610c7a565b905060008167ffffffffffffffff811115610ff1577f4e487b7100000000000000000000000000000000000000000000000000000000600052604160045260246000fd5b60405190808252806020026020018201604052801561101f5781602001602082028036833780820191505090505b509050600d60008473ffffffffffffffffffffffffffffffffffffffff1673ffffffffffffffffffffffffffffffffffffffff1681526020019081526020016000208054806020026020016040519081016040528092919081815260200182805480156110ab57602002820191906000526020600020905b815481526020019060010190808311611097575b50505050509050505050565b6060600280546110c690613eca565b80601f01602080910402602001604051908101604052809291908181526020018280546110f290613eca565b801561113f5780601f106111145761010080835404028352916020019161113f565b820191906000526020600020905b81548152906001019060200180831161112257829003601f168201915b5050505050905090565b61115b611154611a4e565b83836120db565b5050565b600b5481565b611170338383611bed565b5050565b600080600e60008481526020019081526020016000206000815481106111c3577f4e487b7100000000000000000000000000000000000000000000000000000000600052603260045260246000fd5b9060005260206000200160009054906101000a900473ffffffffffffffffffffffffffffffffffffffff1690506000600e600085815260200190815260200160002080549050905061124a6040518060400160405280600f81526020017f7061727469636970616e7473436e74000000000000000000000000000000000081525082612248565b60005b60018261125a9190613de0565b8110156113695760106000868152602001908152602001600020600e60008781526020019081526020016000206001836112949190613d59565b815481106112cb577f4e487b7100000000000000000000000000000000000000000000000000000000600052603260045260246000fd5b9060005260206000200160009054906101000a900473ffffffffffffffffffffffffffffffffffffffff169080600181540180825580915050600190039060005260206000200160009091909190916101000a81548173ffffffffffffffffffffffffffffffffffffffff021916908373ffffffffffffffffffffffffffffffffffffffff160217905550808061136190613efc565b91505061124d565b60106000868152602001908152602001600020839080600181540180825580915050600190039060005260206000200160009091909190916101000a81548173ffffffffffffffffffffffffffffffffffffffff021916908373ffffffffffffffffffffffffffffffffffffffff160217905550600090505b8181101561147b57611468601060008781526020019081526020016000208281548110611438577f4e487b7100000000000000000000000000000000000000000000000000000000600052603260045260246000fd5b9060005260206000200160009054906101000a900473ffffffffffffffffffffffffffffffffffffffff166122e4565b808061147390613efc565b9150506113e2565b600090505b8181101561151957611506600e600087815260200190815260200160002082815481106114d6577f4e487b7100000000000000000000000000000000000000000000000000000000600052603260045260246000fd5b9060005260206000200160009054906101000a900473ffffffffffffffffffffffffffffffffffffffff166122e4565b808061151190613efc565b915050611480565b819350505050919050565b61153561152f611a4e565b83611b0f565b611574576040517f08c379a000000000000000000000000000000000000000000000000000000000815260040161156b90613c2a565b60405180910390fd5b6115808484848461237d565b50505050565b6060611591826119e2565b6115d0576040517f08c379a00000000000000000000000000000000000000000000000000000000081526004016115c790613bea565b60405180910390fd5b60006115da6123d9565b905060008151116115fa5760405180602001604052806000815250611625565b80611604846123f0565b604051602001611615929190613932565b6040516020818303038152906040525b915050919050565b600061163883611174565b90506116438161259d565b60005b8181101561173d5761172a611659610f79565b6010600087815260200190815260200160002083815481106116a4577f4e487b7100000000000000000000000000000000000000000000000000000000600052603260045260246000fd5b9060005260206000200160009054906101000a900473ffffffffffffffffffffffffffffffffffffffff16600f6000888152602001908152602001600020848154811061171a577f4e487b7100000000000000000000000000000000000000000000000000000000600052603260045260246000fd5b9060005260206000200154611bed565b808061173590613efc565b915050611646565b50505050565b600f602052816000526040600020818154811061175f57600080fd5b90600052602060002001600091509150505481565b6000600660008473ffffffffffffffffffffffffffffffffffffffff1673ffffffffffffffffffffffffffffffffffffffff16815260200190815260200160002060008373ffffffffffffffffffffffffffffffffffffffff1673ffffffffffffffffffffffffffffffffffffffff16815260200190815260200160002060009054906101000a900460ff16905092915050565b611810611a4e565b73ffffffffffffffffffffffffffffffffffffffff1661182e610f79565b73ffffffffffffffffffffffffffffffffffffffff1614611884576040517f08c379a000000000000000000000000000000000000000000000000000000000815260040161187b90613baa565b60405180910390fd5b600073ffffffffffffffffffffffffffffffffffffffff168173ffffffffffffffffffffffffffffffffffffffff1614156118f4576040517f08c379a00000000000000000000000000000000000000000000000000000000081526004016118eb90613a6a565b60405180910390fd5b6118fd81611e49565b50565b60007f80ac58cd000000000000000000000000000000000000000000000000000000007bffffffffffffffffffffffffffffffffffffffffffffffffffffffff1916827bffffffffffffffffffffffffffffffffffffffffffffffffffffffff191614806119cb57507f5b5e139f000000000000000000000000000000000000000000000000000000007bffffffffffffffffffffffffffffffffffffffffffffffffffffffff1916827bffffffffffffffffffffffffffffffffffffffffffffffffffffffff1916145b806119db57506119da82612636565b5b9050919050565b60008073ffffffffffffffffffffffffffffffffffffffff166003600084815260200190815260200160002060009054906101000a900473ffffffffffffffffffffffffffffffffffffffff1673ffffffffffffffffffffffffffffffffffffffff1614159050919050565b600033905090565b816005600083815260200190815260200160002060006101000a81548173ffffffffffffffffffffffffffffffffffffffff021916908373ffffffffffffffffffffffffffffffffffffffff160217905550808273ffffffffffffffffffffffffffffffffffffffff16611ac983610b97565b73ffffffffffffffffffffffffffffffffffffffff167f8c5be1e5ebec7d5bd14f71427d1e84f3dd0314c0f7b2291e5b200ac8c7c3b92560405160405180910390a45050565b6000611b1a826119e2565b611b59576040517f08c379a0000000000000000000000000000000000000000000000000000000008152600401611b5090613aea565b60405180910390fd5b6000611b6483610b97565b90508073ffffffffffffffffffffffffffffffffffffffff168473ffffffffffffffffffffffffffffffffffffffff161480611bd357508373ffffffffffffffffffffffffffffffffffffffff16611bbb84610791565b73ffffffffffffffffffffffffffffffffffffffff16145b80611be45750611be38185611774565b5b91505092915050565b8273ffffffffffffffffffffffffffffffffffffffff16611c0d82610b97565b73ffffffffffffffffffffffffffffffffffffffff1614611c63576040517f08c379a0000000000000000000000000000000000000000000000000000000008152600401611c5a90613bca565b60405180910390fd5b600073ffffffffffffffffffffffffffffffffffffffff168273ffffffffffffffffffffffffffffffffffffffff161415611cd3576040517f08c379a0000000000000000000000000000000000000000000000000000000008152600401611cca90613aaa565b60405180910390fd5b611cde8383836126a0565b611ce9600082611a56565b6001600460008573ffffffffffffffffffffffffffffffffffffffff1673ffffffffffffffffffffffffffffffffffffffff1681526020019081526020016000206000828254611d399190613de0565b925050819055506001600460008473ffffffffffffffffffffffffffffffffffffffff1673ffffffffffffffffffffffffffffffffffffffff1681526020019081526020016000206000828254611d909190613d59565b92505081905550816003600083815260200190815260200160002060006101000a81548173ffffffffffffffffffffffffffffffffffffffff021916908373ffffffffffffffffffffffffffffffffffffffff160217905550808273ffffffffffffffffffffffffffffffffffffffff168473ffffffffffffffffffffffffffffffffffffffff167fddf252ad1be2c89b69c2b068fc378daa952ba7f163c4a11628f55a4df523b3ef60405160405180910390a4505050565b60008060009054906101000a900473ffffffffffffffffffffffffffffffffffffffff169050816000806101000a81548173ffffffffffffffffffffffffffffffffffffffff021916908373ffffffffffffffffffffffffffffffffffffffff1602179055508173ffffffffffffffffffffffffffffffffffffffff168173ffffffffffffffffffffffffffffffffffffffff167f8be0079c531659141344cd1fd0a4f28419497f9722a3daafe3b4186f6b6457e060405160405180910390a35050565b600073ffffffffffffffffffffffffffffffffffffffff168273ffffffffffffffffffffffffffffffffffffffff161415611f7d576040517f08c379a0000000000000000000000000000000000000000000000000000000008152600401611f7490613b6a565b60405180910390fd5b611f86816119e2565b15611fc6576040517f08c379a0000000000000000000000000000000000000000000000000000000008152600401611fbd90613a8a565b60405180910390fd5b611fd2600083836126a0565b6001600460008473ffffffffffffffffffffffffffffffffffffffff1673ffffffffffffffffffffffffffffffffffffffff16815260200190815260200160002060008282546120229190613d59565b92505081905550816003600083815260200190815260200160002060006101000a81548173ffffffffffffffffffffffffffffffffffffffff021916908373ffffffffffffffffffffffffffffffffffffffff160217905550808273ffffffffffffffffffffffffffffffffffffffff16600073ffffffffffffffffffffffffffffffffffffffff167fddf252ad1be2c89b69c2b068fc378daa952ba7f163c4a11628f55a4df523b3ef60405160405180910390a45050565b8173ffffffffffffffffffffffffffffffffffffffff168373ffffffffffffffffffffffffffffffffffffffff16141561214a576040517f08c379a000000000000000000000000000000000000000000000000000000000815260040161214190613aca565b60405180910390fd5b80600660008573ffffffffffffffffffffffffffffffffffffffff1673ffffffffffffffffffffffffffffffffffffffff16815260200190815260200160002060008473ffffffffffffffffffffffffffffffffffffffff1673ffffffffffffffffffffffffffffffffffffffff16815260200190815260200160002060006101000a81548160ff0219169083151502179055508173ffffffffffffffffffffffffffffffffffffffff168373ffffffffffffffffffffffffffffffffffffffff167f17307eab39ab6107e8899845ad3d59bd9653f200f220920489ca2b5937696c318360405161223b91906139bd565b60405180910390a3505050565b6122e0828260405160240161225e9291906139fa565b6040516020818303038152906040527f9710a9d0000000000000000000000000000000000000000000000000000000007bffffffffffffffffffffffffffffffffffffffffffffffffffffffff19166020820180517bffffffffffffffffffffffffffffffffffffffffffffffffffffffff83818316178352505050506127b4565b5050565b61237a816040516024016122f89190613956565b6040516020818303038152906040527f2c2ecbc2000000000000000000000000000000000000000000000000000000007bffffffffffffffffffffffffffffffffffffffffffffffffffffffff19166020820180517bffffffffffffffffffffffffffffffffffffffffffffffffffffffff83818316178352505050506127b4565b50565b612388848484611bed565b612394848484846127dd565b6123d3576040517f08c379a00000000000000000000000000000000000000000000000000000000081526004016123ca90613a4a565b60405180910390fd5b50505050565b606060405180602001604052806000815250905090565b60606000821415612438576040518060400160405280600181526020017f30000000000000000000000000000000000000000000000000000000000000008152509050612598565b600082905060005b6000821461246a57808061245390613efc565b915050600a826124639190613daf565b9150612440565b60008167ffffffffffffffff8111156124ac577f4e487b7100000000000000000000000000000000000000000000000000000000600052604160045260246000fd5b6040519080825280601f01601f1916602001820160405280156124de5781602001600182028036833780820191505090505b5090505b60008514612591576001826124f79190613de0565b9150600a856125069190613f45565b60306125129190613d59565b60f81b81838151811061254e577f4e487b7100000000000000000000000000000000000000000000000000000000600052603260045260246000fd5b60200101907effffffffffffffffffffffffffffffffffffffffffffffffffffffffffffff1916908160001a905350600a8561258a9190613daf565b94506124e2565b8093505050505b919050565b612633816040516024016125b19190613c6a565b6040516020818303038152906040527ff5b1bba9000000000000000000000000000000000000000000000000000000007bffffffffffffffffffffffffffffffffffffffffffffffffffffffff19166020820180517bffffffffffffffffffffffffffffffffffffffffffffffffffffffff83818316178352505050506127b4565b50565b60007f01ffc9a7000000000000000000000000000000000000000000000000000000007bffffffffffffffffffffffffffffffffffffffffffffffffffffffff1916827bffffffffffffffffffffffffffffffffffffffffffffffffffffffff1916149050919050565b6126ab838383612974565b600073ffffffffffffffffffffffffffffffffffffffff168373ffffffffffffffffffffffffffffffffffffffff1614156126ee576126e981612979565b61272d565b8173ffffffffffffffffffffffffffffffffffffffff168373ffffffffffffffffffffffffffffffffffffffff161461272c5761272b83826129c2565b5b5b600073ffffffffffffffffffffffffffffffffffffffff168273ffffffffffffffffffffffffffffffffffffffff1614156127705761276b81612b2f565b6127af565b8273ffffffffffffffffffffffffffffffffffffffff168273ffffffffffffffffffffffffffffffffffffffff16146127ae576127ad8282612c72565b5b5b505050565b60008151905060006a636f6e736f6c652e6c6f679050602083016000808483855afa5050505050565b60006127fe8473ffffffffffffffffffffffffffffffffffffffff16612cf1565b15612967578373ffffffffffffffffffffffffffffffffffffffff1663150b7a02612827611a4e565b8786866040518563ffffffff1660e01b81526004016128499493929190613971565b602060405180830381600087803b15801561286357600080fd5b505af192505050801561289457506040513d601f19601f8201168201806040525081019061289191906130b0565b60015b612917573d80600081146128c4576040519150601f19603f3d011682016040523d82523d6000602084013e6128c9565b606091505b5060008151141561290f576040517f08c379a000000000000000000000000000000000000000000000000000000000815260040161290690613a4a565b60405180910390fd5b805181602001fd5b63150b7a0260e01b7bffffffffffffffffffffffffffffffffffffffffffffffffffffffff1916817bffffffffffffffffffffffffffffffffffffffffffffffffffffffff19161491505061296c565b600190505b949350505050565b505050565b600980549050600a600083815260200190815260200160002081905550600981908060018154018082558091505060019003906000526020600020016000909190919091505550565b600060016129cf84610c7a565b6129d99190613de0565b9050600060086000848152602001908152602001600020549050818114612abe576000600760008673ffffffffffffffffffffffffffffffffffffffff1673ffffffffffffffffffffffffffffffffffffffff168152602001908152602001600020600084815260200190815260200160002054905080600760008773ffffffffffffffffffffffffffffffffffffffff1673ffffffffffffffffffffffffffffffffffffffff168152602001908152602001600020600084815260200190815260200160002081905550816008600083815260200190815260200160002081905550505b6008600084815260200190815260200160002060009055600760008573ffffffffffffffffffffffffffffffffffffffff1673ffffffffffffffffffffffffffffffffffffffff16815260200190815260200160002060008381526020019081526020016000206000905550505050565b60006001600980549050612b439190613de0565b90506000600a6000848152602001908152602001600020549050600060098381548110612b99577f4e487b7100000000000000000000000000000000000000000000000000000000600052603260045260246000fd5b906000526020600020015490508060098381548110612be1577f4e487b7100000000000000000000000000000000000000000000000000000000600052603260045260246000fd5b906000526020600020018190555081600a600083815260200190815260200160002081905550600a6000858152602001908152602001600020600090556009805480612c56577f4e487b7100000000000000000000000000000000000000000000000000000000600052603160045260246000fd5b6001900381819060005260206000200160009055905550505050565b6000612c7d83610c7a565b905081600760008573ffffffffffffffffffffffffffffffffffffffff1673ffffffffffffffffffffffffffffffffffffffff168152602001908152602001600020600083815260200190815260200160002081905550806008600084815260200190815260200160002081905550505050565b600080823b905060008111915050919050565b828054612d1090613eca565b90600052602060002090601f016020900481019282612d325760008555612d79565b82601f10612d4b57805160ff1916838001178555612d79565b82800160010185558215612d79579182015b82811115612d78578251825591602001919060010190612d5d565b5b509050612d869190612d8a565b5090565b5b80821115612da3576000816000905550600101612d8b565b5090565b6000612dba612db584613cb6565b613c85565b905082815260208101848484011115612dd257600080fd5b612ddd848285613e88565b509392505050565b6000612df8612df384613ce6565b613c85565b905082815260208101848484011115612e1057600080fd5b612e1b848285613e88565b509392505050565b600081359050612e3281614043565b92915050565b600081359050612e478161405a565b92915050565b600081359050612e5c81614071565b92915050565b600081519050612e7181614071565b92915050565b600082601f830112612e8857600080fd5b8135612e98848260208601612da7565b91505092915050565b600082601f830112612eb257600080fd5b8135612ec2848260208601612de5565b91505092915050565b600081359050612eda81614088565b92915050565b600060208284031215612ef257600080fd5b6000612f0084828501612e23565b91505092915050565b60008060408385031215612f1c57600080fd5b6000612f2a85828601612e23565b9250506020612f3b85828601612e23565b9150509250929050565b600080600060608486031215612f5a57600080fd5b6000612f6886828701612e23565b9350506020612f7986828701612e23565b9250506040612f8a86828701612ecb565b9150509250925092565b60008060008060808587031215612faa57600080fd5b6000612fb887828801612e23565b9450506020612fc987828801612e23565b9350506040612fda87828801612ecb565b925050606085013567ffffffffffffffff811115612ff757600080fd5b61300387828801612e77565b91505092959194509250565b6000806040838503121561302257600080fd5b600061303085828601612e23565b925050602061304185828601612e38565b9150509250929050565b6000806040838503121561305e57600080fd5b600061306c85828601612e23565b925050602061307d85828601612ecb565b9150509250929050565b60006020828403121561309957600080fd5b60006130a784828501612e4d565b91505092915050565b6000602082840312156130c257600080fd5b60006130d084828501612e62565b91505092915050565b600080604083850312156130ec57600080fd5b600083013567ffffffffffffffff81111561310657600080fd5b61311285828601612ea1565b925050602061312385828601612ecb565b9150509250929050565b60006020828403121561313f57600080fd5b600061314d84828501612ecb565b91505092915050565b6000806040838503121561316957600080fd5b600061317785828601612ecb565b925050602061318885828601612e23565b9150509250929050565b600080604083850312156131a557600080fd5b60006131b385828601612ecb565b92505060206131c485828601612ecb565b9150509250929050565b6131d781613e14565b82525050565b6131e681613e26565b82525050565b60006131f782613d16565b6132018185613d2c565b9350613211818560208601613e97565b61321a81614032565b840191505092915050565b600061323082613d21565b61323a8185613d3d565b935061324a818560208601613e97565b61325381614032565b840191505092915050565b600061326982613d21565b6132738185613d4e565b9350613283818560208601613e97565b80840191505092915050565b600061329c602b83613d3d565b91507f455243373231456e756d657261626c653a206f776e657220696e646578206f7560008301527f74206f6620626f756e64730000000000000000000000000000000000000000006020830152604082019050919050565b6000613302603283613d3d565b91507f4552433732313a207472616e7366657220746f206e6f6e20455243373231526560008301527f63656976657220696d706c656d656e74657200000000000000000000000000006020830152604082019050919050565b6000613368602683613d3d565b91507f4f776e61626c653a206e6577206f776e657220697320746865207a65726f206160008301527f64647265737300000000000000000000000000000000000000000000000000006020830152604082019050919050565b60006133ce601c83613d3d565b91507f4552433732313a20746f6b656e20616c7265616479206d696e746564000000006000830152602082019050919050565b600061340e602483613d3d565b91507f4552433732313a207472616e7366657220746f20746865207a65726f2061646460008301527f72657373000000000000000000000000000000000000000000000000000000006020830152604082019050919050565b6000613474601983613d3d565b91507f4552433732313a20617070726f766520746f2063616c6c6572000000000000006000830152602082019050919050565b60006134b4602c83613d3d565b91507f4552433732313a206f70657261746f7220717565727920666f72206e6f6e657860008301527f697374656e7420746f6b656e00000000000000000000000000000000000000006020830152604082019050919050565b600061351a603883613d3d565b91507f4552433732313a20617070726f76652063616c6c6572206973206e6f74206f7760008301527f6e6572206e6f7220617070726f76656420666f7220616c6c00000000000000006020830152604082019050919050565b6000613580602a83613d3d565b91507f4552433732313a2062616c616e636520717565727920666f7220746865207a6560008301527f726f2061646472657373000000000000000000000000000000000000000000006020830152604082019050919050565b60006135e6602983613d3d565b91507f4552433732313a206f776e657220717565727920666f72206e6f6e657869737460008301527f656e7420746f6b656e00000000000000000000000000000000000000000000006020830152604082019050919050565b600061364c602083613d3d565b91507f4552433732313a206d696e7420746f20746865207a65726f20616464726573736000830152602082019050919050565b600061368c602c83613d3d565b91507f4552433732313a20617070726f76656420717565727920666f72206e6f6e657860008301527f697374656e7420746f6b656e00000000000000000000000000000000000000006020830152604082019050919050565b60006136f2602083613d3d565b91507f4f776e61626c653a2063616c6c6572206973206e6f7420746865206f776e65726000830152602082019050919050565b6000613732602983613d3d565b91507f4552433732313a207472616e73666572206f6620746f6b656e2074686174206960008301527f73206e6f74206f776e00000000000000000000000000000000000000000000006020830152604082019050919050565b6000613798602f83613d3d565b91507f4552433732314d657461646174613a2055524920717565727920666f72206e6f60008301527f6e6578697374656e7420746f6b656e00000000000000000000000000000000006020830152604082019050919050565b60006137fe602183613d3d565b91507f4552433732313a20617070726f76616c20746f2063757272656e74206f776e6560008301527f72000000000000000000000000000000000000000000000000000000000000006020830152604082019050919050565b6000613864603183613d3d565b91507f4552433732313a207472616e736665722063616c6c6572206973206e6f74206f60008301527f776e6572206e6f7220617070726f7665640000000000000000000000000000006020830152604082019050919050565b60006138ca602c83613d3d565b91507f455243373231456e756d657261626c653a20676c6f62616c20696e646578206f60008301527f7574206f6620626f756e647300000000000000000000000000000000000000006020830152604082019050919050565b61392c81613e7e565b82525050565b600061393e828561325e565b915061394a828461325e565b91508190509392505050565b600060208201905061396b60008301846131ce565b92915050565b600060808201905061398660008301876131ce565b61399360208301866131ce565b6139a06040830185613923565b81810360608301526139b281846131ec565b905095945050505050565b60006020820190506139d260008301846131dd565b92915050565b600060208201905081810360008301526139f28184613225565b905092915050565b60006040820190508181036000830152613a148185613225565b9050613a236020830184613923565b9392505050565b60006020820190508181036000830152613a438161328f565b9050919050565b60006020820190508181036000830152613a63816132f5565b9050919050565b60006020820190508181036000830152613a838161335b565b9050919050565b60006020820190508181036000830152613aa3816133c1565b9050919050565b60006020820190508181036000830152613ac381613401565b9050919050565b60006020820190508181036000830152613ae381613467565b9050919050565b60006020820190508181036000830152613b03816134a7565b9050919050565b60006020820190508181036000830152613b238161350d565b9050919050565b60006020820190508181036000830152613b4381613573565b9050919050565b60006020820190508181036000830152613b63816135d9565b9050919050565b60006020820190508181036000830152613b838161363f565b9050919050565b60006020820190508181036000830152613ba38161367f565b9050919050565b60006020820190508181036000830152613bc3816136e5565b9050919050565b60006020820190508181036000830152613be381613725565b9050919050565b60006020820190508181036000830152613c038161378b565b9050919050565b60006020820190508181036000830152613c23816137f1565b9050919050565b60006020820190508181036000830152613c4381613857565b9050919050565b60006020820190508181036000830152613c63816138bd565b9050919050565b6000602082019050613c7f6000830184613923565b92915050565b6000604051905081810181811067ffffffffffffffff82111715613cac57613cab614003565b5b8060405250919050565b600067ffffffffffffffff821115613cd157613cd0614003565b5b601f19601f8301169050602081019050919050565b600067ffffffffffffffff821115613d0157613d00614003565b5b601f19601f8301169050602081019050919050565b600081519050919050565b600081519050919050565b600082825260208201905092915050565b600082825260208201905092915050565b600081905092915050565b6000613d6482613e7e565b9150613d6f83613e7e565b9250827fffffffffffffffffffffffffffffffffffffffffffffffffffffffffffffffff03821115613da457613da3613f76565b5b828201905092915050565b6000613dba82613e7e565b9150613dc583613e7e565b925082613dd557613dd4613fa5565b5b828204905092915050565b6000613deb82613e7e565b9150613df683613e7e565b925082821015613e0957613e08613f76565b5b828203905092915050565b6000613e1f82613e5e565b9050919050565b60008115159050919050565b60007fffffffff0000000000000000000000000000000000000000000000000000000082169050919050565b600073ffffffffffffffffffffffffffffffffffffffff82169050919050565b6000819050919050565b82818337600083830152505050565b60005b83811015613eb5578082015181840152602081019050613e9a565b83811115613ec4576000848401525b50505050565b60006002820490506001821680613ee257607f821691505b60208210811415613ef657613ef5613fd4565b5b50919050565b6000613f0782613e7e565b91507fffffffffffffffffffffffffffffffffffffffffffffffffffffffffffffffff821415613f3a57613f39613f76565b5b600182019050919050565b6000613f5082613e7e565b9150613f5b83613e7e565b925082613f6b57613f6a613fa5565b5b828206905092915050565b7f4e487b7100000000000000000000000000000000000000000000000000000000600052601160045260246000fd5b7f4e487b7100000000000000000000000000000000000000000000000000000000600052601260045260246000fd5b7f4e487b7100000000000000000000000000000000000000000000000000000000600052602260045260246000fd5b7f4e487b7100000000000000000000000000000000000000000000000000000000600052604160045260246000fd5b6000601f19601f8301169050919050565b61404c81613e14565b811461405757600080fd5b50565b61406381613e26565b811461406e57600080fd5b50565b61407a81613e32565b811461408557600080fd5b50565b61409181613e7e565b811461409c57600080fd5b5056fea2646970667358221220006d7da26cfe98222700386ab218886a063826d7434928e2507c10b6237a74cd64736f6c63430008000033",
  "linkReferences": {},
  "deployedLinkReferences": {}
}